:020000040800F2
:1000000000000120C5020008CD020008D10200084E
:1000100045030008490300089103000800000000A0
:10002000000000000000000000000000D9030008EC
:10003000DD03000800000000E1030008310C0008A7
:10004000F5030008F5030008F5030008F5030008B0
:10005000F5030008F5030008F5030008F5030008A0
:10006000F5030008F5030008F5030008F503000890
:10007000F5030008F5030008F5030008F503000880
:10008000F5030008F5030008F50300080000000070
:10009000000000000000000000000000F503000860
:1000A000F5030008F5030008F5030008F503000850
:1000B000F5030008F5030008F5030008F503000840
:1000C000F5030008F5030008F5030008F503000830
:1000D000F5030008790F0008850F000800000000F4
:1000E000F5030008F5030008F50300080000000010
:1000F000000000000000000000000000F503000800
:1001000000000000F5030008F5030008F5030008EF
:1001100000000000000000000000000000000000DF
:10012000F5030008F5030008F5030008F5030008CF
:10013000F5030008000000000000000000000000BF
:10014000000000000000000000000000F5030008AF
:10015000F5030008F5030008F5030008910F0008F7
:10016000F5030008F503000800000000000000008F
:10017000000000000000000000000000000000007F
:1001800000000000F503000800000000000000006F
:10019000F503000800B583B000F0BCF9384B394ACC
:1001A0001360394A136039490CE00A684B6801F161
:1001B0000C04886803E01168196004330432984223
:1001C000F9D82146324B9942EFD32E4B1A68314B66
:1001D0009A4204D12C4B1A682F4B9A4200D0FEE76A
:1001E000274B2E4A13602E4A13602E4B0AE0194605
:1001F00051F8082B5B6802E00020106004329A423C
:10020000FAD30B46284A9342F1D3244B1B6813B907
:10021000234B1B6803B1FEE700F088F9694601A88B
:1002200000F022F9214C224B1C1BA410002504E0F5
:100230001E4B53F8253098470135AC42F8DC1D4C75
:100240001D4B1C1BA410002504E01A4B53F825304D
:1002500098470135AC42F8DC0099019800F0BAFEED
:100260000546164C164B1C1BA41004E0013C134B16
:1002700053F824309847002CF8DC284600F0D0F8DA
:10028000BABADECA00000020AC000020F803000863
:10029000100400087856341232547698B0000020CA
:1002A000B401002010040008200400082004000805
:1002B000200400082004000820040008200400088E
:1002C0002004000808B5FFF765FF00BF00BEFEE789
:1002D0001EF0040F0CBFEFF30880EFF309807146A6
:1002E000414A10472DE9F04182B004468846134B3D
:1002F0005E6B9F6B9D6A1B6B13F0020F0DD00F4B53
:10030000DB6A002B09DA4BF6AB6100F08BF920B108
:100310004FF00042094BDA620CE0094800F0ACF8FB
:10032000CDF800803B4632462946204600F002F9CF
:1003300000BEFEE702B0BDE8F08100BF00ED00E0C6
:10034000541F000800BEFEE71EF0040F0CBFEFF3C1
:100350000880EFF309807146244A10472DE9F041E7
:1003600082B004468846084B5E6B9F6B9D6A0748C7
:1003700000F082F8CDF800803B4632462946204600
:1003800000F0D8F800BEFEE700ED00E0641F0008B2
:100390001EF0040F0CBFEFF30880EFF309807146E5
:1003A000134A10472DE9F04182B004468846084BB5
:1003B0005E6B9F6B9D6A074800F05EF8CDF8008089
:1003C0003B4632462946204600F0B4F800BEFEE720
:1003D00000ED00E0701F000800BEFEE700BEFEE773
:1003E00000BEFEE770470000E50200085D0300085C
:0803F000A503000800BEFEE7B2
:1003F800E81F000800000020B0000020E81F0008E7
:100408000000001000000010B0000020B80100201B
:080418000000001000000010BC
:10042000FEE700BF08B50D4B1B6813B90C4A0B4B18
:100430001A600A4B1A68C31C23F0030313440949CA
:100440008B4206D901F068F80C2303604FF0FF30AF
:1004500008BD02490B60104608BD00BFB400002073
:10046000B801002000FC002001230360014B0B6059
:10047000704700BF040000200FB400B583B004AB88
:1004800053F8042B01938021064801F077F80028E7
:1004900003DD0146034800F039F803B05DF804EBD2
:1004A00004B07047BC0000202DE9F04385B004463D
:1004B0000F46435613BB042528462146ABBE0446CF
:1004C0001FE03546102E28BF1025002306E014F942
:1004D000011B04AA1A4402F8101C0133AB42F6D3E4
:1004E00004AA1344002203F8102CE9464FF0040834
:1004F00040464946ABBE8046761B00E00E46002EC5
:10050000DFD1384605B0BDE8F08300BF08B5FFF77E
:10051000CBFF08BD08B500F095F8024B024A9A607F
:1005200008BD00BF00ED00E00000000808B500F0C5
:10053000A9F808BDF8B504460D4617461E462648DC
:10054000FFF79AFF21682548FFF796FF6168244866
:10055000FFF792FFA1682348FFF78EFFE16822486A
:10056000FFF78AFF21692148FFF786FF616920486C
:10057000FFF782FFA1691F48FFF77EFFE1691E4870
:10058000FFF77AFF1D48FFF777FF29461C48FFF762
:1005900073FF1C4CE16A1C48FFF76EFF216B1B4880
:1005A000FFF76AFFE16B1A48FFF766FF15F0800F4F
:1005B00003D039461748FFF75FFF15F4004F03D00B
:1005C00031461548FFF758FF1448FFF755FF0699C5
:1005D0001348FFF751FFF8BD381E0008481E0008F9
:1005E000581E0008681E0008781E0008881E0008B3
:1005F000981E0008A81E0008B81E0008C81E0008A3
:10060000D41E000800ED00E0E41E0008F41E0008FF
:10061000041F0008141F0008241F0008341F0008CE
:100620003C1F000883691A888A4207D10268033A8E
:10063000012A05D8023383610120704700207047EA
:10064000002070470C4B1A6842F001021A6000212A
:1006500099601A6822F0847222F480321A60074A84
:100660005A601A6822F480221A60D9604FF0006242
:10067000034B9A60704700BF0038024010300024DE
:1006800000ED00E0224B9B6803F00C03042B07D025
:10069000082B09D0002B2DD11E4A1F4B1A602CE0CD
:1006A0001E4A1D4B1A6028E0194B5A685B6803F01C
:1006B0003F0312F4800F09D0184AB2FBF3F2144B37
:1006C0005B68C3F3881303FB02F208E0114AB2FB34
:1006D000F3F30F4A5168C1F3881101FB03F20C4B8D
:1006E0005B68C3F3014301335B00B2FBF3F30A4AD7
:1006F000136002E0074A084B1A60054B9B68C3F37E
:100700000313074AD15C044A1368CB401360704757
:10071000003802400024F4000C00002040787D01E5
:10072000801F0008F0B50268264B9A4213D003F5EB
:1007300080639A420FD003F580639A420BD003F591
:1007400080639A4207D003F580639A4203D003F591
:1007500040639A4234D1868800232DE046FA03F1A3
:1007600011F0010F26D0176884795D000321A9409C
:10077000C9430F40E408AC403C4314605768847997
:100780004FF0010E0EFA03FE27EA0E07C4F38004B1
:100790009C403C435460D76884790F4004F00304C4
:1007A000AC403C43D46094682140C47904FA05F518
:1007B000294391600133DBB20F2BCFD90020F0BD6C
:1007C0000220F0BD0000024010B403680F2901D8D8
:1007D000002000E00320104CA34214D004F58064F4
:1007E000A34210D004F58064A3420CD004F58064C9
:1007F000A34208D004F58064A34204D004F5406409
:10080000A34200D002201AB1012A03D1996101E06C
:100810000904996110BC70470000024030B40F2AEF
:100820002ED8FF290ED912E041FA03F414F0010F7B
:1008300005D0046A9D0002FA05F52C4304620133D9
:10084000DBB200E00023072BEED9002019E0FF29DE
:1008500011D8002015E041FA03F414F0010F07D07D
:10086000456AA3F10804A40002FA04F42C4344628C
:100870000133DBB200E008230F2BECD9002000E0AD
:10088000042030BC704700BF10B582B0002413E0D4
:100890000C4B53F83420009203EBC4039A88ADF854
:1008A0000420DB798DF8073008238DF80630684680
:1008B000FFF738FF0134E4B2022CE9D9002002B07E
:1008C00010BD00BF901F000800B583B00C4B53F85B
:1008D0003020009203EBC0008388ADF80430C27969
:1008E0008DF8072008228DF8062082794A401946A3
:1008F0006846FFF769FF002003B05DF804FB00BF06
:10090000901F0008F02817D830B40D490C68420930
:1009100000F01F00012303FA00F002F1600554F813
:100920002530034344F825300B6853F82210084360
:1009300043F82200002001E00220704730BC7047DD
:10094000100000200C4B196841F00101002301E068
:1009500001339BB242F20F72934202D811F0020FA0
:10096000F6D042F21072934201D0022000E0032040
:10097000014B1960704700BF00380240184B9B685C
:1009800001280CD010B1022814D01EE0144A1268BD
:1009900012F0020F1BD023F0030304201CE0104AC6
:1009A000126812F4003F14D023F0030343F0010354
:1009B000042011E00A4A126812F0007F0BD023F0E5
:1009C000030343F00203042006E0062004E00520B0
:1009D00002E0052000E00520014A9360704700BF57
:1009E0000038024070B4914B1C6B5E6B1A6C5D6CEE
:1009F000032800F20B81DFE800F002545DB91629EC
:100A000000F20681DFE811F017001D002300290025
:100A10002F00040104013500040104010401040154
:100A20003B00040104010401040104010401040168
:100A3000040141004700012303FA01F10C430020A7
:100A4000EDE0012303FA01F10C430020E7E001236C
:100A500003FA01F10C430020E1E0012303FA01F164
:100A60000C430020DBE0012303FA01F10C430020DA
:100A7000D5E0012303FA01F10C430020CFE001236C
:100A800003FA01F10C430020C9E0012303FA01F14C
:100A90000C430020C3E0012303FA01F10C430020C2
:100AA000BDE0072940F0B680012303FA01F10E43AF
:100AB0000020B4E01C2900F2AF80DFE801F00F1540
:100AC0001B21ADADADADADADAD27ADAD2D33AD3968
:100AD000ADADAD3F454BADADADAD5100012303FA1A
:100AE00001F10A4300209AE0012303FA01F10A43CD
:100AF000002094E0012303FA01F10A4300208EE074
:100B0000012303FA01F10A43002088E0012303FADC
:100B100001F10A43002082E0012303FA01F10A43B4
:100B200000207CE0012303FA01F10A43002076E073
:100B3000012303FA01F10A43002070E0012303FAC4
:100B400001F10A4300206AE0012303FA01F10A439C
:100B5000002064E0012303FA01F10A4300205EE073
:100B6000012303FA01F10A43002058E0122955D865
:100B7000DFE801F00A545454101654541C54542203
:100B8000282E34543A404600012303FA01F10D4364
:100B9000002044E0012303FA01F10D4300203EE070
:100BA000012303FA01F10D43002038E0012303FA89
:100BB00001F10D43002032E0012303FA01F10D435E
:100BC00000202CE0012303FA01F10D43002026E070
:100BD000012303FA01F10D43002020E0012303FA71
:100BE00001F10D4300201AE0012303FA01F10D4346
:100BF000002014E0012303FA01F10D4300200EE070
:100C0000012303FA01F10D43002008E00B2006E068
:100C10000C2004E00C2002E00C2000E00C20034B30
:100C20001C635E631A645D6470BC704700380240E8
:100C300008B5024B1B6803B1984708BD3C01002072
:100C4000F8B50546446924B1B4F5004F03D000203F
:100C500002E0002000E00120C0F10200AB6903FBCC
:100C600000F0C00000F090FA0146194800F098FB2F
:100C7000074600F031FC064664B900F085FA0146EB
:100C8000384600F0CFF94FF0834100F0D5FA00F07C
:100C900023FC10E0B4F5004F0CD100F075FA0146CA
:100CA000384600F0BFF94FF0824100F0C5FA00F07D
:100CB00013FC00E000202A78064B53F822309A6893
:100CC00000F00F0040EA061010439860F8BD00BF26
:100CD0000024744BA81F000838B504462C4B53F869
:100CE00020502B6813F0400F23D02A4B1B5C012BA4
:100CF0001FD1294B53F82030284A52F82020934224
:100D00000BD2274A52F82020D35C6B60224A52F85B
:100D10002030013342F820300BE000221D4B1A54E2
:100D2000EB6823F04003EB601E4B53F8203003B117
:100D300098472B6813F0200F28D01B4B1B5D012B0D
:100D400024D11A4B53F82430194A52F824209342E4
:100D500008D2184A52F824206968D154134A013342
:100D600042F82430114B53F82420114B53F824300F
:100D70009A420BD100220C4B1A55EB6823F020034A
:100D8000EB600D4B53F8243003B1984738BD00BFDA
:100D9000A81F0008140000207C01002094010020FE
:100DA000640100208801002018000020400100207C
:100DB0004C010020700100205801002038B5044685
:100DC0000378012B0AD80722018CC069FFF726FDA2
:100DD0000722218D606AFFF721FD0BE0022B09D16C
:100DE0000822018CC069FFF719FD0822218D606A75
:100DF000FFF714FD04F11C00FFF794FC04F124003C
:100E0000FFF790FC23782C4D55F82320D36843F04E
:100E10000803D360237855F82320D36843F00403F4
:100E2000D360237855F82310CB6823F4805263688D
:100E30001343CB60237855F82310CB6823F48062EA
:100E4000A3681343CB60237855F82310CB6823F4B1
:100E50000072E3681343CB60237855F823100B69C5
:100E600023F44052236913430B61237855F8231070
:100E7000CB6823F4004263691343CB602046FFF73D
:100E8000DFFE237855F82320D36843F40053D36062
:100E90002520FFF737FD2620FFF734FD4720FFF719
:100EA00031FD23780020054AD054054AD05455F826
:100EB0002330186038BD00BFA81F000814000020B0
:100EC0001800002030B4104C245CD4B901250E4C1D
:100ED00025540E4C44F820100D4C44F820200D4CA5
:100EE000002244F820200C4A42F820300B4B53F8E3
:100EF00020300A785A60DA6842F04002DA6044F83A
:100F00002050002030BC70471400002064010020F5
:100F1000940100207C01002088010020A81F000807
:100F200010B40F4C245CC4B90E4C44F820100E4988
:100F300041F8202000220D4941F8202001240849D1
:100F40000C540B4941F820300A4B53F82010CB6861
:100F500043F02003CB60104600E0032010BC704734
:100F600018000020700100204C01002040010020EA
:100F700058010020A81F000808B50020FFF7ACFEAC
:100F800008BD00BF08B50120FFF7A6FE08BD00BFE1
:100F900008B50220FFF7A0FE08BD00BF08B501217B
:100FA0000846FFF791FC08BD08B5074B197881F09A
:100FB000010119700220FFF787FC044B032204494A
:100FC0000020FFF77FFF08BDA00100209D0F000853
:100FD000B001002008B5FFF7B5FC0020FFF7CEFCFC
:100FE00004210320FFF7FEFC00210846FFF7FAFC6E
:100FF00002210020FFF7F6FCFFF746FC0448FFF74C
:10100000DDFE044B032204490020FFF789FFF8E7C7
:101010001C000020A90F0008B001002080F0004053
:1010200002E000BF81F0004142001FBF5FEA4103C0
:1010300092EA030F7FEA226C7FEA236C6AD04FEAC0
:101040001262D2EB1363C1BFD21841404840414005
:10105000B8BF5B42192B88BF704710F0004F40F4B7
:10106000000020F07F4018BF404211F0004F41F4D3
:10107000000121F07F4118BF494292EA030F3FD09F
:10108000A2F1010241FA03FC10EB0C00C3F12003B2
:1010900001FA03F100F0004302D5494260EB400041
:1010A000B0F5000F13D3B0F1807F06D340084FEAAC
:1010B000310102F10102FE2A51D2B1F1004F40EBA1
:1010C000C25008BF20F0010040EA03007047490009
:1010D00040EB000010F4000FA2F10102EDD1B0FAD4
:1010E00080FCACF1080CB2EB0C0200FA0CF0AABFC9
:1010F00000EBC25052421843BCBFD0401843704767
:1011000092F0000F81F4000106BF80F4000001326C
:10111000013BB5E74FEA41037FEA226C18BF7FEA43
:10112000236C21D092EA030F04D092F0000F08BF85
:101130000846704790EA010F1CBF0020704712F06C
:101140007F4F04D1400028BF40F00040704712F1AB
:1011500000723CBF00F50000704700F0004343F010
:10116000FE4040F4000070477FEA226216BF084646
:101170007FEA23630146420206BF5FEA412390EA09
:10118000010F40F4800070474FF0000304E000BFFF
:1011900010F0004348BF40425FEA000C08BF7047B0
:1011A00043F0964301464FF000001CE050EA010274
:1011B00008BF70474FF000030AE000BF50EA010289
:1011C00008BF704711F0004302D5404261EB410176
:1011D0005FEA010C02BF84460146002043F0B6439B
:1011E00008BFA3F18053A3F50003BCFA8CF2083AC0
:1011F000A3EBC25310DB01FA02FC634400FA02FCC9
:10120000C2F12002BCF1004F20FA02F243EB0200CF
:1012100008BF20F00100704702F1200201FA02FC31
:10122000C2F1200250EA4C0021FA02F243EB020024
:1012300008BF20EADC7070474FF0FF0C1CEAD05268
:101240001EBF1CEAD15392EA0C0F93EA0C0F6FD029
:101250001A4480EA010C400218BF5FEA41211ED007
:101260004FF0006343EA501043EA5111A0FB0131F3
:101270000CF00040B1F5000F3EBF490041EAD371C8
:101280005B0040EA010062F17F02FD2A1DD8B3F144
:10129000004F40EBC25008BF20F00100704790F0B3
:1012A000000F0CF0004C08BF49024CEA502040EA05
:1012B00051207F3AC2BFD2F1FF0340EAC2507047CB
:1012C00040F400004FF00003013A5DDC12F1190F09
:1012D000DCBF00F000407047C2F10002410021FA7B
:1012E00002F1C2F1200200FA02FC5FEA310040F193
:1012F000000053EA4C0308BF20EADC70704792F00C
:10130000000F00F0004C02BF400010F4000F013A43
:10131000F9D040EA0C0093F0000F01F0004C02BF3E
:10132000490011F4000F013BF9D041EA0C018FE7AD
:101330000CEAD15392EA0C0F18BF93EA0C0F0AD0B3
:1013400030F0004C18BF31F0004CD8D180EA0100D9
:1013500000F00040704790F0000F17BF90F0004F72
:10136000084691F0000F91F0004F14D092EA0C0F54
:1013700001D142020FD193EA0C0F03D14B0218BFE7
:10138000084608D180EA010000F0004040F0FE402D
:1013900040F40000704740F0FE4040F440007047C9
:1013A0004FF0FF0C1CEAD0521EBF1CEAD15392EA48
:1013B0000C0F93EA0C0F69D0A2EB030280EA010C38
:1013C00049024FEA402037D04FF0805343EA1111D1
:1013D00043EA10130CF000408B4238BF5B0042F12F
:1013E0007D024FF4000C8B4224BF5B1A40EA0C00D4
:1013F000B3EB510F24BFA3EB510340EA5C00B3EB06
:10140000910F24BFA3EB910340EA9C00B3EBD10FF3
:1014100024BFA3EBD10340EADC001B0118BF5FEA45
:101420001C1CE0D1FD2A3FF650AF8B4240EBC2506E
:1014300008BF20F0010070470CF0004C4CEA50202F
:101440007F32C2BFD2F1FF0340EAC250704740F47E
:1014500000004FF00003013A37E792F0000F00F070
:10146000004C02BF400010F4000F013AF9D040EAEE
:101470000C0093F0000F01F0004C02BF490011F482
:10148000000F013BF9D041EA0C0195E70CEAD1537A
:1014900092EA0C0F08D142027FF47DAF93EA0C0F61
:1014A0007FF470AF084676E793EA0C0F04D14B0245
:1014B0003FF44CAF08466EE730F0004C18BF31F0F7
:1014C000004CCAD130F000427FF45CAF31F00043F1
:1014D0007FF43CAF5FE700BF42000ED2B2F1FE4F97
:1014E0000BD34FF09E03B3EB126209D44FEA0023F3
:1014F00043F0004323FA02F070474FF000007047BA
:1015000012F1610F01D1420202D14FF0FF3070475A
:101510004FF00000704700BF014B1868704700BFD4
:10152000A800002030B5141E05469BB0184604DA0A
:101530008B232B604FF0FF301DE04FF40273ADF8AA
:101540000C3014BF04F1FF332346029305934FF68A
:10155000FF7300910491ADF80E3002461E9B694660
:10156000284600F073F8431CBCBF8B232B6014B1DA
:10157000009B00221A701BB030BD000007B500931D
:1015800013460A46014603480068FFF7CBFF03B045
:101590005DF804FBA80000202DE9F0478E689E420C
:1015A00082460C46914698463ED88A8912F4906F3E
:1015B0003AD0256809696F1A6569022305EB45056C
:1015C00095FBF3F57B1C43449D4238BF1D465305F4
:1015D0000FD5294600F090FB064698B13A4621699E
:1015E00000F016FBA38923F4906343F08003A381EA
:1015F00013E02A4600F0DEFB064670B9216950462A
:1016000000F02CFB0C23CAF80030A38943F0400300
:10161000A3814FF0FF30BDE8F087266165613E444D
:10162000ED1B2660A5604646464528BF4646324625
:101630004946206800F0F7FAA3689B1BA360236863
:101640001E4426600020BDE8F08700002DE9F04F21
:101650009DB0804603938B891C060D4616460DD51A
:101660000B695BB9402100F047FB2860286118B97D
:101670000C23C8F80030CDE040236B6100230993B0
:1016800020238DF82930DFF89CB130238DF82A30E3
:1016900037463C4614F8013B1BB9B7EB060910D09E
:1016A00003E0252BF9D02746F3E74B46324629467F
:1016B0004046FFF771FF013000F0A780099B4B44C3
:1016C00009933B78002B00F0A08000234FF0FF32FD
:1016D00004930793059206938DF853301A930126CD
:1016E000052221784E4800F043FA671C049B38B16C
:1016F0004B4A801A06FA00F0184304903C46EFE784
:10170000D90644BF20228DF853201A0744BF2B224C
:101710008DF8532022782A2A03D0079A00210A2024
:101720000BE0039A111D12680391002A10DA52424D
:1017300043F00200079204900BE0274601343B7807
:10174000303B092B03D800FB02320121F5E701B140
:1017500007923B782E2B1ED17B782A2B0AD1039B34
:101760001A1D1B680392002BB8BF4FF0FF330237DE
:10177000059310E000230593781C19460A240746B8
:1017800001303A78303A092A03D804FB01210123B9
:10179000F5E703B1059103223978224800F0E8F912
:1017A00040B14023CBEB000003FA00F0049B184348
:1017B0000490013739781C488DF8281006227E1CC9
:1017C00000F0D6F988B1194B33B9039B073323F0E6
:1017D00007030833039314E003AB00932A46144B2A
:1017E00004A94046AFF3008007E003AB00932A460C
:1017F0000F4B04A9404600F093F8B0F1FF3F82463A
:1018000003D0099B5344099342E7AB895B0601D49B
:10181000099801E04FF0FF301DB0BDE8F08F00BF28
:10182000B41F0008BA1F0008BE1F00080000000017
:10183000991500082DE9F04791461F460A698B6803
:10184000DDF820809342B8BF1346C9F8003091F804
:10185000432006460C4612B10133C9F80030236814
:10186000990642BFD9F800300233C9F80030256824
:1018700015F0060510D104F1190A07E001235246BC
:1018800039463046C04701301AD00135E368D9F8EF
:1018900000209B1A9D42F1DB94F84330226800330C
:1018A00018BF012392060FD5E1185A1C302081F889
:1018B0004300224494F8451082F84310023303E0B9
:1018C0004FF0FF30BDE8F08704F14302394630465F
:1018D000C0470130F4D02268D9F80050E36802F024
:1018E0000602042A08BF5D1B2269A3680CBF25EA13
:1018F000E57500259342C4BF9B1AED184FF000090F
:101900001A344D4509D00123224639463046C04796
:101910000130D5D009F10109F3E70020BDE8F087D7
:101920002DE9F04317460A7E85B06E2A9846064692
:101930000C460C9B01F1430E00F0AE8011D8632AD7
:1019400022D009D8002A00F0BB80582A40F0CA8073
:1019500081F84520834955E0642A1ED0692A1CD0AD
:10196000C0E0732A00F0B08009D86F2A2ED0702A08
:1019700040F0B8800A6842F020020A603EE0752A12
:1019800024D0782A3AD0ADE01A6801F14205111D41
:101990001960136884F84230A8E021681A6811F0D1
:1019A000800F02D0111D196008E011F0400F02F104
:1019B0000401196002D0B2F9003000E01368002B76
:1019C0003CDA2D225B4284F8432037E021681A6814
:1019D00011F0800F02D0111D196007E011F0400FC7
:1019E00002F10401196001D0138800E01368227E1F
:1019F0005C496F2A14BF0A2208221BE078225A4948
:101A000084F845202268186812F0800F00F1040560
:101A10001D6003D1550601D5038800E00368D00797
:101A200044BF42F0200222601BB9226822F020024B
:101A300022601022002084F8430001E049490A2274
:101A40006568A560002D08DB206820F00400206098
:101A50002BB9002D7DD175460CE0002B79D0754651
:101A6000B3FBF2F002FB1033CB5C05F8013D0346FB
:101A70000028F5D1082A0BD12368DA0708D5236995
:101A800062689A42DEBF302305F8013C05F1FF355C
:101A9000C5EB0E0323612EE008681A68496910F04F
:101AA000800F03D0101D1860136808E010F0400F7D
:101AB00002F104001860136801D0198000E0196079
:101AC00000232361754616E01A68111D1960156818
:101AD00062680021284600F04BF808B1401B6060A6
:101AE000636804E004F1420584F842200123236185
:101AF000002384F84330CDF800803B4603AA2146FA
:101B00003046FFF797FE013002D14FF0FF3026E05C
:101B100023692A4639463046C0470130F5D023684C
:101B20009B0710D5002504F1190907E001234A4657
:101B300039463046C0470130E7D00135E368039AA3
:101B40009B1A9D42F2DBE068039B9842B8BF18469F
:101B500005E00B7884F8423004F142058AE705B0CD
:101B6000BDE8F083C51F0008D61F00080000000074
:101B700001F0FF01102A2BDB10F0070F08D010F83E
:101B8000013B013A8B422DD010F0070F42B3F6D142
:101B9000F0B441EA012141EA014122F007047FF05B
:101BA00000070023F0E80256083C85EA010586EAB2
:101BB000010685FA47F5A3FA87F586FA47F6A5FAEE
:101BC00087F68EB9EED1F0BC01F0FF0102F00702FA
:101BD00032B110F8013B013A83EA010313B1F8D1A5
:101BE0000020704701387047002D06BF3546033886
:101BF000073815F0010F07D1013015F4807F02BFBF
:101C0000013015F4C03F0130F0BC0138704700BF0F
:101C100010B5431E0A44914204D011F8014B03F859
:101C2000014FF8E710BD884210B501EB020301D85F
:101C3000421E0BE09842FBD28118D21AD34204D044
:101C400013F8014D01F8014DF8E710BD994204D099
:101C500011F8014B02F8014FF8E710BD38B5054601
:101C6000002946D051F8043C0C1F002BB8BFE418E3
:101C700000F0D6F81F4A1368114613B96360146068
:101C800032E0A3420ED92268A018834204BF18682C
:101C90005B68636004BF121822600C6024E0A242FB
:101CA00003D813465A68002AF9D118681918A142B6
:101CB0000BD12168014458188242196014D1106870
:101CC00052685A60014419600EE002D90C232B605F
:101CD0000AE021686018824204BF1068526862609E
:101CE00004BF091821605C602846BDE8384000F058
:101CF00098B838BDA801002070B5CD1C25F00305AB
:101D000008350C2D38BF0C25002D064601DBA942F5
:101D100002D90C23336046E000F082F8234B1C68A4
:101D20001A462146A1B10B685B1B0ED40B2B03D9BD
:101D30000B60CC18CD501EE08C420DBF63684B6821
:101D40006360136018BF0C4615E00C464968E9E76C
:101D5000174C23681BB9304600F052F82060294622
:101D6000304600F04DF8431C18D0C41C24F0030486
:101D7000A0420DD12560304600F053F804F10B006D
:101D8000231D20F00700C31A0ED05A42E25070BD46
:101D9000211A304600F034F80130EBD10C233360C7
:101DA000304600F03EF8002070BD00BFA8010020C2
:101DB000A4010020F8B5074615460E4621B9114684
:101DC000BDE8F840FFF798BF1AB9FFF747FF28466C
:101DD000F8BD00F027F885420ED929463846FFF7AE
:101DE0008BFF044650B131462A46FFF711FF3146BA
:101DF0003846FFF733FF01E03046F8BD2046F8BD16
:101E000038B5064C0023054608462360FEF70AFB5A
:101E1000431C02D1236803B12B6038BDAC01002004
:101E20007047704751F8040C0028BEBF091851F8DC
:101E3000043CC01804387047537461636B206672A9
:101E4000616D653A0A000000205230203D202025B7
:101E50003038580A00000000205231203D20202553
:101E60003038580A00000000205232203D20202542
:101E70003038580A00000000205233203D20202531
:101E80003038580A0000000020523132203D202511
:101E90003038580A00000000204C52203D202025F8
:101EA0003038580A00000000205043203D202025F3
:101EB0003038580A0000000020505352203D2025A1
:101EC0003038580A000000004653522F4641523A1B
:101ED0000A0000002043465352203D202025303880
:101EE000580A00002048465352203D202025303813
:101EF000580A00002044465352203D202025303807
:101F0000580A00002041465352203D2020253038F9
:101F1000580A0000204D4D464152203D20253038C2
:101F2000580A00002042464152203D2020253038EA
:101F3000580A00004D6973630A000000204C522FBC
:101F40004558435F52455455524E3D202530385830
:101F50000A0000005B486172644661756C745D0A3A
:101F6000000000005B4275734661756C745D0A0089
:101F70005B55736167654661756C745D0A000000AE
:101F80000000000000000000010203040607080929
:101F9000000802400020010300000240020000038C
:101FA0000000024004000003001001400044004013
:101FB00000140140232D302B2000686C4C00656616
:101FC000674546470030313233343536373839418A
:101FD00042434445460030313233343536373839A0
:071FE00061626364656600A5
:101FE80078563412B8000020000000000024F400E5
:101FF80000E100E0020202FF020202FF000000000E
:1020080000000000000000000002000000000000C6
:1020180000000000802500000000024000021003BC
:10202800000002400004110300000000000000004E
:102038000000000000000000000000000000000098
:102048000000000000000000000000000000000088
:102058000000000000000000000000000000000078
:102068000000000000000000000000000000000068
:102078000000000000000000000000000000000058
:10208800000000000000000048000020325476984C
:040000050800019559
:00000001FF
