:020000040800F2
:1000000000000120C5020008CD020008D10200084E
:1000100045030008490300089103000800000000A0
:10002000000000000000000000000000D9030008EC
:10003000DD03000800000000E1030008290F0008AC
:10004000F5030008F5030008F5030008F5030008B0
:10005000F5030008F5030008F5030008F5030008A0
:10006000F5030008F5030008F5030008F503000890
:10007000F5030008F5030008F5030008F503000880
:10008000F5030008F5030008F50300080000000070
:10009000000000000000000000000000F503000860
:1000A000F5030008F5030008F5030008F503000850
:1000B000F5030008F5030008F5030008F503000840
:1000C000F5030008F5030008F5030008F503000830
:1000D000F5030008ED130008F91300080000000004
:1000E000F5030008F5030008F50300080000000010
:1000F000000000000000000000000000F503000800
:1001000000000000F5030008F5030008F5030008EF
:1001100000000000000000000000000000000000DF
:10012000F5030008F5030008F5030008F5030008CF
:10013000F5030008000000000000000000000000BF
:10014000000000000000000000000000F5030008AF
:10015000F5030008F5030008F5030008051400087E
:10016000F5030008F503000800000000000000008F
:10017000000000000000000000000000000000007F
:1001800000000000F503000800000000000000006F
:10019000F503000800B583B000F0BCF9384B394ACC
:1001A0001360394A136039490CE00A684B6801F161
:1001B0000C04886803E01168196004330432984223
:1001C000F9D82146324B9942EFD32E4B1A68314B66
:1001D0009A4204D12C4B1A682F4B9A4200D0FEE76A
:1001E000274B2E4A13602E4A13602E4B0AE0194605
:1001F00051F8082B5B6802E00020106004329A423C
:10020000FAD30B46284A9342F1D3244B1B6813B907
:10021000234B1B6803B1FEE700F088F9694601A88B
:1002200000F022F9214C224B1C1BA410002504E0F5
:100230001E4B53F8253098470135AC42F8DC1D4C75
:100240001D4B1C1BA410002504E01A4B53F825304D
:1002500098470135AC42F8DC0099019801F0F6F8B6
:100260000546164C164B1C1BA41004E0013C134B16
:1002700053F824309847002CF8DC284600F0D0F8DA
:10028000BABADECA00000020F4000020F80300081B
:10029000100400087856341232547698F800002082
:1002A00010020020100400082004000820040008A8
:1002B000200400082004000820040008200400088E
:1002C0002004000808B5FFF765FF00BF00BEFEE789
:1002D0001EF0040F0CBFEFF30880EFF309807146A6
:1002E000414A10472DE9F04182B004468846134B3D
:1002F0005E6B9F6B9D6A1B6B13F0020F0DD00F4B53
:10030000DB6A002B09DA4BF6AB6100F08BF920B108
:100310004FF00042094BDA620CE0094800F0ACF8FB
:10032000CDF800803B4632462946204600F002F9CF
:1003300000BEFEE702B0BDE8F08100BF00ED00E0C6
:10034000D423000800BEFEE71EF0040F0CBFEFF33D
:100350000880EFF309807146244A10472DE9F041E7
:1003600082B004468846084B5E6B9F6B9D6A0748C7
:1003700000F082F8CDF800803B4632462946204600
:1003800000F0D8F800BEFEE700ED00E0E42300082E
:100390001EF0040F0CBFEFF30880EFF309807146E5
:1003A000134A10472DE9F04182B004468846084BB5
:1003B0005E6B9F6B9D6A074800F05EF8CDF8008089
:1003C0003B4632462946204600F0B4F800BEFEE720
:1003D00000ED00E0F023000800BEFEE700BEFEE7EF
:1003E00000BEFEE770470000E50200085D0300085C
:0803F000A503000800BEFEE7B2
:1003F8005424000800000020F800002054240008BD
:100408000000001000000010F80000201402002076
:080418000000001000000010BC
:10042000FEE700BF08B50D4B1B6813B90C4A0B4B18
:100430001A600A4B1A68C31C23F0030313440949CA
:100440008B4206D901F0AAFA0C2303604FF0FF306B
:1004500008BD02490B60104608BD00BFFC0000202B
:100460001402002000FC002001230360014B0B60FC
:10047000704700BF040000200FB400B583B004AB88
:1004800053F8042B01938021064801F0B9FA0028A3
:1004900003DD0146034800F039F803B05DF804EBD2
:1004A00004B07047040100202DE9F04385B00446F4
:1004B0000F46435613BB042528462146ABBE0446CF
:1004C0001FE03546102E28BF1025002306E014F942
:1004D000011B04AA1A4402F8101C0133AB42F6D3E4
:1004E00004AA1344002203F8102CE9464FF0040834
:1004F00040464946ABBE8046761B00E00E46002EC5
:10050000DFD1384605B0BDE8F08300BF08B5FFF77E
:10051000CBFF08BD08B500F095F8024B024A9A607F
:1005200008BD00BF00ED00E00000000808B500F0C5
:10053000A9F808BDF8B504460D4617461E462648DC
:10054000FFF79AFF21682548FFF796FF6168244866
:10055000FFF792FFA1682348FFF78EFFE16822486A
:10056000FFF78AFF21692148FFF786FF616920486C
:10057000FFF782FFA1691F48FFF77EFFE1691E4870
:10058000FFF77AFF1D48FFF777FF29461C48FFF762
:1005900073FF1C4CE16A1C48FFF76EFF216B1B4880
:1005A000FFF76AFFE16B1A48FFF766FF15F0800F4F
:1005B00003D039461748FFF75FFF15F4004F03D00B
:1005C00031461548FFF758FF1448FFF755FF0699C5
:1005D0001348FFF751FFF8BDB8220008C8220008F1
:1005E000D8220008E8220008F822000808230008A2
:1005F000182300082823000838230008482300088F
:100600005423000800ED00E0642300087423000870
:100610008423000894230008A4230008B4230008BE
:10062000BC23000883691A888A4207D10268033A0A
:10063000012A05D8023383610120704700207047EA
:10064000002070470C4B1A6842F001021A6000212A
:1006500099601A6822F0847222F480321A60074A84
:100660005A601A6822F480221A60D9604FF0006242
:10067000034B9A60704700BF0038024010300024DE
:1006800000ED00E0224B9B6803F00C03042B07D025
:10069000082B09D0002B2DD11E4A1F4B1A602CE0CD
:1006A0001E4A1D4B1A6028E0194B5A685B6803F01C
:1006B0003F0312F4800F09D0184AB2FBF3F2144B37
:1006C0005B68C3F3881303FB02F208E0114AB2FB34
:1006D000F3F30F4A5168C1F3881101FB03F20C4B8D
:1006E0005B68C3F3014301335B00B2FBF3F30A4AD7
:1006F000136002E0074A084B1A60054B9B68C3F37E
:100700000313074AD15C044A1368CB401360704757
:10071000003802400024F4000C00002040787D01E5
:1007200000240008816842880378062B04D82AB187
:10073000042905D90820704702207047032070471C
:1007400000207047062800F29580002940F0948030
:10075000052800F29380DFE800F0031A31485F7645
:1007600062B94D4A1068836923EA01038361126804
:10077000936943EA0141916100207047012A7FD1CA
:10078000454B1A689369194391610020704762B91B
:10079000414A5068836923EA01038361526893697F
:1007A00043EA0141916100207047012A6AD13A4B26
:1007B0005A689369194391610020704762B9364ABB
:1007C0009068836923EA010383619268936943EA2D
:1007D0000141916100207047012A55D12E4B9A6842
:1007E0009369194391610020704762B92A4AD06821
:1007F000836923EA01038361D268936943EA014173
:10080000916100207047012A40D1234BDA68936937
:10081000194391610020704762B91F4A10698369CA
:1008200023EA010383611269936943EA01419161FB
:1008300000207047012A2BD1174B1A69936919437D
:1008400091610020704762B9134A5069836923EAB5
:10085000010383615269936943EA01419161002078
:100860007047012A16D10C4B5A699369194391615B
:100870000020704702207047032070470120704716
:10088000002070470020704700207047002070470C
:1008900000207047002070471000002070B4052829
:1008A00000F2B4800F2A00F2B380FF2948D94CE04F
:1008B00051FA03F541D005283FD8DFE800F0030DD9
:1008C00017212B35544E35682D6A9C0002FA04F42A
:1008D0002C4335682C6230E04F4E75682D6A9C00C1
:1008E00002FA04F42C4375682C6226E04A4EB5687F
:1008F0002D6A9C0002FA04F42C43B5682C621CE0BB
:10090000454EF5682D6A9C0002FA04F42C43F56804
:100910002C6212E0404E35692D6A9C0002FA04F404
:100920002C4335692C6208E03B4E75692D6A9C00AA
:1009300002FA04F42C4375692C620133DBB200E047
:100940000023072BB4D9002063E0A1F580739BB28C
:10095000B3F5FE4F55D900205BE051FA03F54DD0B9
:1009600005284BD8DFE800F0030F1B27333F2A4E42
:1009700035686D6AA3F10804A40002FA04F42C435C
:1009800035686C623AE0244E75686D6AA3F108041C
:10099000A40002FA04F42C4375686C622EE01E4E2B
:1009A000B5686D6AA3F10804A40002FA04F42C43AC
:1009B000B5686C6222E0184EF5686D6AA3F1080410
:1009C000A40002FA04F42C43F5686C6216E0124E9F
:1009D00035696D6AA3F10804A40002FA04F42C43FB
:1009E00035696C620AE00C4E75696D6AA3F1080402
:1009F000A40002FA04F42C4375696C620133DBB283
:100A000000E008230F2BA8D9002002E0022000E01C
:100A1000062070BC704700BF1000002010B584B0E5
:100A2000002412E009230293C4EBC403094A1344CF
:100A3000DA78ADF806209A788DF804209B79039334
:100A400001A8FFF76FFE0134E4B2012CEAD90020BF
:100A500004B010BD1024000808B5C0EBC000054B61
:100A6000184442794A40C1788078FFF76BFE002035
:100A700008BD00BF10240008F02818D870B40E4C30
:100A80002568420902F1600655F8261000F01F00A3
:100A9000012303FA00F041EA000345F826302168FB
:100AA00051F82230184341F82200002001E00220D2
:100AB000704770BC704700BF2800002002285CD837
:100AC00001281ED010B1022839D058E0304A1368EE
:100AD0009B6823F0030312689360002301E0013355
:100AE0009BB22B4A1268926812F00C0F03D042F2AC
:100AF0000F729342F3D942F20F72934241D8002011
:100B00007047234A13689B6823F0030343F00103F3
:100B100012689360002301E001339BB21C4A126803
:100B20009268C2F38102012A03D042F20F7293420B
:100B3000F2D942F20F72934225D800207047144A2E
:100B400013689B6823F0030343F002031268936069
:100B5000002301E001339BB20D4A12689268C2F390
:100B60008102022A03D042F20F729342F2D942F27A
:100B70000F72934209D80020704704207047042068
:100B8000704703207047032070470320704700BF61
:100B90002C000020032800F24381DFE810F004005D
:100BA0005B006800E1008F4B1B681B6B162900F28D
:100BB0003981DFE811F0480041003A0033002C0091
:100BC0003701370125003701370137013701370178
:100BD0003701370137013701370137013701370155
:100BE0001E00170043F480037E4A1268136300203E
:100BF000704743F400137B4A126813630020704768
:100C000043F08003774A126813630020704743F073
:100C10001003744A126813630020704743F00803FE
:100C2000704A126813630020704743F004036D4A52
:100C3000126813630020704743F00203694A126888
:100C400013630020704743F00103664A1268136380
:100C500000207047634B1B685B6B072940F0E48002
:100C600043F080035F4A12685363002070475D4B76
:100C70001B681B6C1C2900F2D980DFE811F06A00A8
:100C800063005C005500D700D700D700D700D7001D
:100C9000D700D7004E00D700D70047004000D7004C
:100CA0003900D700D700D70032002B002400D7002E
:100CB000D700D700D7001D0043F08053494A12687F
:100CC00013640020704743F40003464A126813641B
:100CD0000020704743F48003424A126813640020E6
:100CE000704743F400133F4A1268136400207047B2
:100CF00043F400333B4A126813640020704743F406
:100D00000043384A126813640020704743F480435C
:100D1000344A126813640020704743F40063314A78
:100D2000126813630020704743F008032D4A1268CD
:100D300013640020704743F004032A4A12681364C6
:100D40000020704743F00203264A12681364002013
:100D5000704743F00103234A126813640020704770
:100D6000204B1B685B6C122962D8DFE801F05261EE
:100D700061614B4461613D6161342D261F61181131
:100D80000A0043F48023174A126853640020704716
:100D900043F40033134A126853640020704743F44D
:100DA0008033104A126853640020704743F4804334
:100DB0000C4A126853640020704743F40053094AF8
:100DC000126853640020704743F48053054A126848
:100DD00053640020704743F40063024A126853646E
:100DE000002070472C00002043F48073114A1268E1
:100DF00053630020704743F020030E4A1268536487
:100E00000020704743F010030A4A12685364002020
:100E1000704743F00103074A12685364002070478B
:100E2000002070472A2070472B2070472C207047E5
:100E30002D2070472C000020064B1A6842F0040257
:100E40001A601A681A601A6822F002021A600020FA
:100E5000704700BF10E000E0034A136843F001034D
:100E600013600020704700BF10E000E0034A1368E1
:100E700043F0020313600020704700BF10E000E061
:100E800018B1034A1060002070470220704700BF6D
:100E90008401002010B403283BD810B101281CD0D5
:100EA00039E011B101290CD037E01E4B1968002040
:100EB000186019684FF47A5404FB02F20A431A606E
:100EC0002EE0184B19680020186019684FF4FA6476
:100ED00004FB02F20A431A6022E011B101290CD08E
:100EE0001DE0104B196800201860196846F2A8141C
:100EF00004FB02F20A431A6012E00A4B1968002050
:100F00001860196840F6354404FB02F20A431A607F
:100F100006E0012004E0002002E0002000E00020C4
:100F200010BC704714E000E008B5024B1B6803B129
:100F3000984708BD84010020034B1B6813B90122A8
:100F4000014B1A60704700BF8801002038B50024AB
:100F500021E0254604EB44029300104AD358D96897
:100F6000B9B104EB440293000C4A13445B6843B9E3
:100F700088470A49630023449A008B188A585268AC
:100F80005A6006496A00501983000B445A68013AB6
:100F90005A600134E4B2012CDBD938BD8C01002049
:100FA00038B5FFF749FF012200210846FFF772FF1D
:100FB000FFF75CFF0A48FFF763FF00230CE00948D6
:100FC00000EB0310084C5A00D518A9006050406887
:100FD000214448600133DBB2012BF0D9002038BD39
:100FE000390F0008300000208C01002008B5FFF701
:100FF00033FF054B1B68002BFBD0FFF7A7FF002238
:10100000014B1A60F5E700BF8801002070B5234A44
:101010001089557925B1012D02D1214B1B689B68A0
:10102000204B93FBF0F3DB00C5F1020000FB03F063
:1010300000F0F0FA064600F091FC044615B1012DCF
:101040000DD019E000F0E2FA0146304600F02CFA2B
:101050004FF0834100F032FB00F080FC0DE000F027
:10106000D5FA0146304600F01FFA4FF0824100F0F9
:1010700025FB00F073FC00E00020094B1A68916822
:10108000002191601B689A68044342EA040040F41E
:10109000885040F01100986070BD00BF64000020CF
:1010A000540000200024F40010B504462D4B1B5CB6
:1010B000012B2DD12C4B53F820301B6813F0400F1F
:1010C00026D02A4B53F82030294A52F82020934248
:1010D0000ED2254A52F82020264951F82010CB5C28
:1010E0005360224A52F82030013342F820300FE09A
:1010F00093420DD900221B4B1A541B4B53F820204E
:10110000D36823F08003D3601B4B53F820309847FB
:101110001A4B1B5D012B24D1194B53F82430194A6B
:1011200052F8242093420CD2174A52F824200E4938
:1011300051F824104968D154114A013342F824303F
:1011400010BD93420DD900220C4B1A55064B53F893
:101150002420D36823F02003D3600C4B53F82430B1
:10116000984710BD5000002054000020F8010020D6
:10117000BC010020C8010020D40100206000002034
:10118000A4010020EC010020E0010020B0010020BB
:10119000F8B50024B9E025462C2303FB04F35D4A8F
:1011A000D35C6BB92C2303FB04260722718A307CA5
:1011B000FFF774FB0722F18B307FFFF76FFB0AE02C
:1011C000022B08D12C23534A03FB04230822598AFB
:1011D000187CFFF763FB2C2606FB05F606F11000D2
:1011E0004C4F3844FFF79EFA06F11800384404309B
:1011F000FFF798FABA19B95D474B53F82130DB680D
:10120000927812B963F4805303E0012A01D143F4C8
:101210008053414A52F82110CB603E492C2303FBF6
:1012200005F3C818CB5C52F82320D268C17861B9A5
:101230002C21384801FB0501097911B942F40072EB
:1012400003E0012901D162F40072334951F82330DF
:10125000DA60304A2C2303FB05F3D018D25C51F836
:101260002230DB684179012902D143F4004302E0D6
:1012700009B963F40043284951F82220D360254A74
:101280002C2303FB05F3D018D25C51F822301969E6
:1012900083796BB1022B02D141F4005108E0012B9C
:1012A00002D141F4405103E0032B01D141F48051BC
:1012B000194E56F822301961FFF7A8FE154F2C235E
:1012C00003FB05F57B5D56F82320D36843F40053F8
:1012D000D3607B5D56F82320D36843F08003D3604E
:1012E0007B5D56F82320D36843F02003D3600020B1
:1012F000FFF7C2FB7A5D002308498B5408498B54E1
:1013000056F8222013600134E4B2002C3FF443AFBE
:101310000020F8BD64000020540000205000002090
:101320006000002070B4124C245CF4B90125104C0C
:101330002554104C44F820100F4C44F820200F4C3A
:10134000002244F820200E4E46F820300D4B53F872
:1013500020600978716053F82010CB6843F0400397
:10136000CB6044F82050104600E0022070BC70476B
:1013700050000020C8010020BC010020F80100201E
:10138000D40100205400002030B40F4C245CC4B9B8
:1013900001250D4C25540D4C44F820100C4941F802
:1013A000202000220B4941F820200B4941F8203031
:1013B0000A4B53F82010CB6843F02003CB60104653
:1013C00000E0022030BC704760000020E0010020F7
:1013D000EC010020A4010020B001002054000020F6
:1013E000014B1878704700BF6000002008B500204E
:1013F000FFF75AFE08BD00BF08B50120FFF754FEF5
:1014000008BD00BF08B50220FFF74EFE08BD00BFB3
:1014100000B583B0FFF7E4FF20B9044B022201A915
:10142000FFF7B2FF03B05DF804FB00BF3D140008F6
:1014300008B501210020FFF70FFB08BD08B5012109
:101440000846FFF709FB08BD704700BF00B583B031
:101450000020FFF733FB00210846FFF79BFB01212B
:101460000020FFF797FB04210320FFF793FBFFF712
:10147000D5FAFFF78DFEFFF793FDFFF7B7FD064B9B
:10148000022201A90020FFF74DFF044B022201A90F
:101490000020FFF779FFF2E7311400083D1400083F
:1014A00080F0004002E000BF81F0004142001FBF19
:1014B0005FEA410392EA030F7FEA226C7FEA236C22
:1014C0006AD04FEA1262D2EB1363C1BFD218414017
:1014D00048404140B8BF5B42192B88BF704710F0AD
:1014E000004F40F4000020F07F4018BF404211F050
:1014F000004F41F4000121F07F4118BF494292EAB8
:10150000030F3FD0A2F1010241FA03FC10EB0C00E3
:10151000C3F1200301FA03F100F0004302D5494270
:1015200060EB4000B0F5000F13D3B0F1807F06D31D
:1015300040084FEA310102F10102FE2A51D2B1F115
:10154000004F40EBC25008BF20F0010040EA03000A
:101550007047490040EB000010F4000FA2F10102B7
:10156000EDD1B0FA80FCACF1080CB2EB0C0200FA41
:101570000CF0AABF00EBC25052421843BCBFD0408F
:101580001843704792F0000F81F4000106BF80F409
:1015900000000132013BB5E74FEA41037FEA226CCC
:1015A00018BF7FEA236C21D092EA030F04D092F097
:1015B000000F08BF0846704790EA010F1CBF0020CB
:1015C000704712F07F4F04D1400028BF40F0004028
:1015D000704712F100723CBF00F50000704700F048
:1015E000004343F0FE4040F4000070477FEA22626F
:1015F00016BF08467FEA23630146420206BF5FEA40
:10160000412390EA010F40F4800070474FF000033F
:1016100004E000BF10F0004348BF40425FEA000C06
:1016200008BF704743F0964301464FF000001CE0AE
:1016300050EA010208BF70474FF000030AE000BF04
:1016400050EA010208BF704711F0004302D5404242
:1016500061EB41015FEA010C02BF844601460020B4
:1016600043F0B64308BFA3F18053A3F50003BCFACF
:101670008CF2083AA3EBC25310DB01FA02FC63447C
:1016800000FA02FCC2F12002BCF1004F20FA02F283
:1016900043EB020008BF20F00100704702F1200276
:1016A00001FA02FCC2F1200250EA4C0021FA02F2D7
:1016B00043EB020008BF20EADC7070474FF0FF0CDC
:1016C0001CEAD0521EBF1CEAD15392EA0C0F93EAD7
:1016D0000C0F6FD01A4480EA010C400218BF5FEA79
:1016E00041211ED04FF0006343EA501043EA5111EC
:1016F000A0FB01310CF00040B1F5000F3EBF4900E6
:1017000041EAD3715B0040EA010062F17F02FD2AE9
:101710001DD8B3F1004F40EBC25008BF20F00100CC
:10172000704790F0000F0CF0004C08BF49024CEAE3
:10173000502040EA51207F3AC2BFD2F1FF0340EA75
:10174000C250704740F400004FF00003013A5DDCE6
:1017500012F1190FDCBF00F000407047C2F1000227
:10176000410021FA02F1C2F1200200FA02FC5FEA14
:10177000310040F1000053EA4C0308BF20EADC705E
:10178000704792F0000F00F0004C02BF400010F4D0
:10179000000F013AF9D040EA0C0093F0000F01F07D
:1017A000004C02BF490011F4000F013BF9D041EA9F
:1017B0000C018FE70CEAD15392EA0C0F18BF93EAA1
:1017C0000C0F0AD030F0004C18BF31F0004CD8D1CB
:1017D00080EA010000F00040704790F0000F17BF52
:1017E00090F0004F084691F0000F91F0004F14D098
:1017F00092EA0C0F01D142020FD193EA0C0F03D1F0
:101800004B0218BF084608D180EA010000F00040F2
:1018100040F0FE4040F40000704740F0FE4040F4CD
:10182000400070474FF0FF0C1CEAD0521EBF1CEA6C
:10183000D15392EA0C0F93EA0C0F69D0A2EB03028A
:1018400080EA010C49024FEA402037D04FF0805324
:1018500043EA111143EA10130CF000408B4238BFE9
:101860005B0042F17D024FF4000C8B4224BF5B1AF7
:1018700040EA0C00B3EB510F24BFA3EB510340EA45
:101880005C00B3EB910F24BFA3EB910340EA9C00F3
:10189000B3EBD10F24BFA3EBD10340EADC001B0163
:1018A00018BF5FEA1C1CE0D1FD2A3FF650AF8B4207
:1018B00040EBC25008BF20F0010070470CF0004C14
:1018C0004CEA50207F32C2BFD2F1FF0340EAC2503F
:1018D000704740F400004FF00003013A37E792F000
:1018E000000F00F0004C02BF400010F4000F013A5E
:1018F000F9D040EA0C0093F0000F01F0004C02BF59
:10190000490011F4000F013BF9D041EA0C0195E7C1
:101910000CEAD15392EA0C0F08D142027FF47DAF5A
:1019200093EA0C0F7FF470AF084676E793EA0C0F4A
:1019300004D14B023FF44CAF08466EE730F0004C48
:1019400018BF31F0004CCAD130F000427FF45CAFD8
:1019500031F000437FF43CAF5FE700BF42000ED29E
:10196000B2F1FE4F0BD34FF09E03B3EB126209D4DA
:101970004FEA002343F0004323FA02F070474FF090
:101980000000704712F1610F01D1420202D14FF005
:10199000FF3070474FF00000704700BF014B1868E0
:1019A000704700BFF000002030B5141E05469BB004
:1019B000184604DA8B232B604FF0FF301DE04FF404
:1019C0000273ADF80C3014BF04F1FF3323460293C9
:1019D00005934FF6FF7300910491ADF80E30024667
:1019E0001E9B6946284600F073F8431CBCBF8B233E
:1019F0002B6014B1009B00221A701BB030BD000098
:101A000007B5009313460A46014603480068FFF7EE
:101A1000CBFF03B05DF804FBF00000202DE9F04798
:101A20008E689E4282460C46914698463ED88A89E8
:101A300012F4906F3AD0256809696F1A656902231C
:101A400005EB450595FBF3F57B1C43449D4238BFF0
:101A50001D4653050FD5294600F08EFB064698B16A
:101A60003A46216900F014FBA38923F4906343F004
:101A70008003A38113E02A4600F0DCFB064670B920
:101A80002169504600F02AFB0C23CAF80030A389D4
:101A900043F04003A3814FF0FF30BDE8F08726619B
:101AA00065613E44ED1B2660A5604646464528BF5D
:101AB000464632464946206800F0F5FAA3689B1B6B
:101AC000A36023681E4426600020BDE8F087000064
:101AD0002DE9F04F9DB0804603938B891C060D467F
:101AE00016460DD50B695BB9402100F045FB286017
:101AF000286118B90C23C8F80030CDE040236B6191
:101B00000023099320238DF82930DFF89CB130237E
:101B10008DF82A3037463C4614F8013B1BB9B7EB29
:101B2000060910D003E0252BF9D02746F3E74B46F2
:101B3000324629464046FFF771FF013000F0A7808A
:101B4000099B4B4409933B78002B00F0A0800023B5
:101B50004FF0FF3204930793059206938DF85330AC
:101B60001A930126052221784E4800F041FA671C9D
:101B7000049B38B14B4A801A06FA00F018430490CF
:101B80003C46EFE7D90644BF20228DF853201A07C0
:101B900044BF2B228DF8532022782A2A03D0079A9B
:101BA00000210A200BE0039A111D12680391002AFC
:101BB00010DA524243F00200079204900BE02746ED
:101BC00001343B78303B092B03D800FB0232012162
:101BD000F5E701B107923B782E2B1ED17B782A2B9B
:101BE0000AD1039B1A1D1B680392002BB8BF4FF04C
:101BF000FF330237059310E000230593781C194644
:101C00000A24074601303A78303A092A03D804FBFF
:101C100001210123F5E703B1059103223978224818
:101C200000F0E6F940B14023CBEB000003FA00F0EE
:101C3000049B18430490013739781C488DF828100C
:101C400006227E1C00F0D4F988B1194B33B9039BEE
:101C5000073323F007030833039314E003AB009327
:101C60002A46144B04A94046AFF3008007E003ABBB
:101C700000932A460F4B04A9404600F093F8B0F1B8
:101C8000FF3F824603D0099B5344099342E7AB8947
:101C90005B0601D4099801E04FF0FF301DB0BDE8AC
:101CA000F08F00BF1E240008242400082824000808
:101CB000000000001D1A00082DE9F04791461F465C
:101CC0000A698B68DDF820809342B8BF1346C9F8D3
:101CD000003091F8432006460C4612B10133C9F892
:101CE00000302368990642BFD9F800300233C9F8A2
:101CF0000030256815F0060510D104F1190A07E037
:101D00000123524639463046C04701301AD00135CA
:101D1000E368D9F800209B1A9D42F1DB94F8433028
:101D20002268003318BF012392060FD5E1185A1C10
:101D3000302081F84300224494F8451082F8431083
:101D4000023303E04FF0FF30BDE8F08704F14302B7
:101D500039463046C0470130F4D02268D9F80050E7
:101D6000E36802F00602042A08BF5D1B2269A3682B
:101D70000CBF25EAE57500259342C4BF9B1AED18F8
:101D80004FF000091A344D4509D001232246394647
:101D90003046C0470130D5D009F10109F3E70020F2
:101DA000BDE8F0872DE9F04317460A7E85B06E2A1C
:101DB000984606460C460C9B01F1430E00F0AE809F
:101DC00011D8632A22D009D8002A00F0BB80582AF3
:101DD00040F0CA8081F84520834955E0642A1ED02E
:101DE000692A1CD0C0E0732A00F0B08009D86F2A9D
:101DF0002ED0702A40F0B8800A6842F020020A60B3
:101E00003EE0752A24D0782A3AD0ADE01A6801F174
:101E10004205111D1960136884F84230A8E021685A
:101E20001A6811F0800F02D0111D196008E011F03E
:101E3000400F02F10401196002D0B2F9003000E055
:101E40001368002B3CDA2D225B4284F8432037E0F4
:101E500021681A6811F0800F02D0111D196007E087
:101E600011F0400F02F10401196001D0138800E065
:101E70001368227E5C496F2A14BF0A2208221BE0E5
:101E800078225A4984F845202268186812F0800F99
:101E900000F104051D6003D1550601D5038800E05B
:101EA0000368D00744BF42F0200222601BB92268B9
:101EB00022F0200222601022002084F8430001E07A
:101EC00049490A226568A560002D08DB206820F0DA
:101ED000040020602BB9002D7DD175460CE0002B4D
:101EE00079D07546B3FBF2F002FB1033CB5C05F8FA
:101EF000013D03460028F5D1082A0BD12368DA07F3
:101F000008D5236962689A42DEBF302305F8013C98
:101F100005F1FF35C5EB0E0323612EE008681A6852
:101F2000496910F0800F03D0101D1860136808E095
:101F300010F0400F02F104001860136801D01980FE
:101F400000E0196000232361754616E01A68111D30
:101F50001960156862680021284600F049F808B148
:101F6000401B6060636804E004F1420584F842208D
:101F700001232361002384F84330CDF800803B46E1
:101F800003AA21463046FFF797FE013002D14FF0F9
:101F9000FF3026E023692A4639463046C0470130E3
:101FA000F5D023689B0710D5002504F1190907E037
:101FB00001234A4639463046C0470130E7D0013553
:101FC000E368039A9B1A9D42F2DBE068039B984208
:101FD000B8BF184605E00B7884F8423004F142059A
:101FE0008AE705B0BDE8F0832F24000840240008EC
:101FF00001F0FF01102A2BDB10F0070F08D010F8BA
:10200000013B013A8B422DD010F0070F42B3F6D1BD
:10201000F0B441EA012141EA014122F007047FF0D6
:1020200000070023F0E80256083C85EA010586EA2D
:10203000010685FA47F5A3FA87F586FA47F6A5FA69
:1020400087F68EB9EED1F0BC01F0FF0102F0070275
:1020500032B110F8013B013A83EA010313B1F8D120
:102060000020704701387047002D06BF3546033801
:10207000073815F0010F07D1013015F4807F02BF3A
:10208000013015F4C03F0130F0BC0138704700BF8B
:1020900010B5431E0A44914204D011F8014B03F8D5
:1020A000014FF8E710BD884210B501EB020301D8DB
:1020B000421E0BE09842FBD28118D21AD34204D0C0
:1020C00013F8014D01F8014DF8E710BD994204D015
:1020D00011F8014B02F8014FF8E710BD38B505467D
:1020E000002946D051F8043C0C1F002BB8BFE4185F
:1020F00000F0D6F81F4A1368114613B963601460E4
:1021000032E0A3420ED92268A018834204BF1868A7
:102110005B68636004BF121822600C6024E0A24276
:1021200003D813465A68002AF9D118681918A14231
:102130000BD12168014458188242196014D11068EB
:1021400052685A60014419600EE002D90C232B60DA
:102150000AE021686018824204BF10685268626019
:1021600004BF091821605C602846BDE8384000F0D3
:1021700098B838BD0802002070B5CD1C25F00305C5
:1021800008350C2D38BF0C25002D064601DBA94271
:1021900002D90C23336046E000F082F8234B1C6820
:1021A0001A462146A1B10B685B1B0ED40B2B03D939
:1021B0000B60CC18CD501EE08C420DBF63684B689D
:1021C0006360136018BF0C4615E00C464968E9E7E8
:1021D000174C23681BB9304600F052F8206029469E
:1021E000304600F04DF8431C18D0C41C24F0030402
:1021F000A0420DD12560304600F053F804F10B00E9
:10220000231D20F00700C31A0ED05A42E25070BDC1
:10221000211A304600F034F80130EBD10C23336042
:10222000304600F03EF8002070BD00BF08020020DC
:1022300004020020F8B5074615460E4621B911469E
:10224000BDE8F840FFF798BF1AB9FFF747FF2846E7
:10225000F8BD00F027F885420ED929463846FFF729
:102260008BFF044650B131462A46FFF711FF314635
:102270003846FFF733FF01E03046F8BD2046F8BD91
:1022800038B5064C0023054608462360FEF7CAF819
:10229000431C02D1236803B12B6038BD0C0200201F
:1022A0007047704751F8040C0028BEBF091851F858
:1022B000043CC01804387047537461636B20667225
:1022C000616D653A0A000000205230203D20202533
:1022D0003038580A00000000205231203D202025CF
:1022E0003038580A00000000205232203D202025BE
:1022F0003038580A00000000205233203D202025AD
:102300003038580A0000000020523132203D20258C
:102310003038580A00000000204C52203D20202573
:102320003038580A00000000205043203D2020256E
:102330003038580A0000000020505352203D20251C
:102340003038580A000000004653522F4641523A96
:102350000A0000002043465352203D2020253038FB
:10236000580A00002048465352203D20202530388E
:10237000580A00002044465352203D202025303882
:10238000580A00002041465352203D202025303875
:10239000580A0000204D4D464152203D202530383E
:1023A000580A00002042464152203D202025303866
:1023B000580A00004D6973630A000000204C522F38
:1023C0004558435F52455455524E3D2025303858AC
:1023D0000A0000005B486172644661756C745D0AB6
:1023E000000000005B4275734661756C745D0A0005
:1023F0005B55736167654661756C745D0A0000002A
:1024000000000000000000000102030406070809A4
:102410000000000101000200010002010002232D62
:10242000302B2000686C4C006566674546470030DD
:10243000313233343536373839414243444546002A
:10244000303132333435363738396162636465662A
:01245000008B
:102454007856341200010020000000000024F4002B
:10246400000002400004024000080240000C024048
:1024740000100240001C024000E100E0003802406D
:1024840000000000F40100000100000049140008ED
:1024940000000000E803000002000000111400081E
:1024A400030303FF001001400044004000401140BA
:1024B400030303FF00010000020000008025000068
:1024C40000000000000000021000000003000000F3
:1024D40000000004100000000300000000000000E1
:1024E40000000000000000000000000000000000E8
:1024F40000000000000000000000000000000000D8
:1025040000000000000000000000000000000000C7
:1025140000000000000000000000000000000000B7
:1025240000000000000000000000000000000000A7
:102534000000000000000000000000000000000097
:0825440090000020325476984B
:040000050800019559
:00000001FF
