:020000040800F2
:1000000000000120C5020008CD020008D10200084E
:1000100045030008490300089103000800000000A0
:10002000000000000000000000000000D9030008EC
:10003000DD03000800000000E1030008F90E0008DD
:10004000F5030008F5030008F5030008F5030008B0
:10005000F5030008F5030008F5030008F5030008A0
:10006000F5030008F5030008F5030008F503000890
:10007000F5030008F5030008F5030008F503000880
:10008000F5030008F5030008F50300080000000070
:10009000000000000000000000000000F503000860
:1000A000F5030008F5030008F5030008F503000850
:1000B000F5030008F5030008F5030008F503000840
:1000C000F5030008F5030008F5030008F503000830
:1000D000F5030008F5030008F50300080000000020
:1000E000F5030008F5030008F50300080000000010
:1000F000000000000000000000000000F503000800
:1001000000000000F5030008F5030008F5030008EF
:1001100000000000000000000000000000000000DF
:10012000F5030008F5030008F5030008F5030008CF
:10013000F5030008000000000000000000000000BF
:10014000000000000000000000000000F5030008AF
:10015000F5030008F5030008F5030008F50300089F
:10016000F5030008F503000800000000000000008F
:10017000000000000000000000000000000000007F
:1001800000000000F503000800000000000000006F
:10019000F503000800B583B000F0BCF9384B394ACC
:1001A0001360394A136039490CE00A684B6801F161
:1001B0000C04886803E01168196004330432984223
:1001C000F9D82146324B9942EFD32E4B1A68314B66
:1001D0009A4204D12C4B1A682F4B9A4200D0FEE76A
:1001E000274B2E4A13602E4A13602E4B0AE0194605
:1001F00051F8082B5B6802E00020106004329A423C
:10020000FAD30B46284A9342F1D3244B1B6813B907
:10021000234B1B6803B1FEE700F088F9694601A88B
:1002200000F022F9214C224B1C1BA410002504E0F5
:100230001E4B53F8253098470135AC42F8DC1D4C75
:100240001D4B1C1BA410002504E01A4B53F825304D
:1002500098470135AC42F8DC0099019800F054FE53
:100260000546164C164B1C1BA41004E0013C134B16
:1002700053F824309847002CF8DC284600F0D0F8DA
:10028000BABADECA0000002004010020F80300080A
:100290001004000878563412325476980801002071
:1002A000D0010020100400082004000820040008E9
:1002B000200400082004000820040008200400088E
:1002C0002004000808B5FFF765FF00BF00BEFEE789
:1002D0001EF0040F0CBFEFF30880EFF309807146A6
:1002E000414A10472DE9F04182B004468846134B3D
:1002F0005E6B9F6B9D6A1B6B13F0020F0DD00F4B53
:10030000DB6A002B09DA4BF6AB6100F08BF920B108
:100310004FF00042094BDA620CE0094800F0ACF8FB
:10032000CDF800803B4632462946204600F002F9CF
:1003300000BEFEE702B0BDE8F08100BF00ED00E0C6
:10034000341A000800BEFEE71EF0040F0CBFEFF3E6
:100350000880EFF309807146244A10472DE9F041E7
:1003600082B004468846084B5E6B9F6B9D6A0748C7
:1003700000F082F8CDF800803B4632462946204600
:1003800000F0D8F800BEFEE700ED00E0441A0008D7
:100390001EF0040F0CBFEFF30880EFF309807146E5
:1003A000134A10472DE9F04182B004468846084BB5
:1003B0005E6B9F6B9D6A074800F05EF8CDF8008089
:1003C0003B4632462946204600F0B4F800BEFEE720
:1003D00000ED00E0501A000800BEFEE700BEFEE798
:1003E00000BEFEE770470000E50200085D0300085C
:0803F000A503000800BEFEE7B2
:1003F800CC1A00080000002008010020CC1A0008D0
:10040800000000100000001008010020D4010020A6
:080418000000001000000010BC
:10042000FEE700BF08B50D4B1B6813B90C4A0B4B18
:100430001A600A4B1A68C31C23F0030313440949CA
:100440008B4206D900F0D6FD0C2303604FF0FF303D
:1004500008BD02490B60104608BD00BF0C0100201A
:10046000D401002000FC002001230360014B0B603D
:10047000704700BF040000200FB400B583B004AB88
:1004800053F8042B01938021064800F0E5FD002875
:1004900003DD0146034800F039F803B05DF804EBD2
:1004A00004B07047140100202DE9F04385B00446E4
:1004B0000F46435613BB042528462146ABBE0446CF
:1004C0001FE03546102E28BF1025002306E014F942
:1004D000011B04AA1A4402F8101C0133AB42F6D3E4
:1004E00004AA1344002203F8102CE9464FF0040834
:1004F00040464946ABBE8046761B00E00E46002EC5
:10050000DFD1384605B0BDE8F08300BF08B5FFF77E
:10051000CBFF08BD08B500F095F8024B024A9A607F
:1005200008BD00BF00ED00E00000000808B500F0C5
:10053000A9F808BDF8B504460D4617461E462648DC
:10054000FFF79AFF21682548FFF796FF6168244866
:10055000FFF792FFA1682348FFF78EFFE16822486A
:10056000FFF78AFF21692148FFF786FF616920486C
:10057000FFF782FFA1691F48FFF77EFFE1691E4870
:10058000FFF77AFF1D48FFF777FF29461C48FFF762
:1005900073FF1C4CE16A1C48FFF76EFF216B1B4880
:1005A000FFF76AFFE16B1A48FFF766FF15F0800F4F
:1005B00003D039461748FFF75FFF15F4004F03D00B
:1005C00031461548FFF758FF1448FFF755FF0699C5
:1005D0001348FFF751FFF8BD181900082819000843
:1005E0003819000848190008581900086819000847
:1005F000781900088819000898190008A819000837
:10060000B419000800ED00E0C4190008D41900086E
:10061000E4190008F4190008041A0008141A000864
:100620001C1A000883691A888A4207D10268033AB3
:10063000012A05D8023383610120704700207047EA
:10064000002070470C4B1A6842F001021A6000212A
:1006500099601A6822F0847222F480321A60074A84
:100660005A601A6822F480221A60D9604FF0006242
:10067000034B9A60704700BF0038024010300024DE
:1006800000ED00E0224B9B6803F00C03042B07D025
:10069000082B09D0002B2DD11E4A1F4B1A602CE0CD
:1006A0001E4A1D4B1A6028E0194B5A685B6803F01C
:1006B0003F0312F4800F09D0184AB2FBF3F2144B37
:1006C0005B68C3F3881303FB02F208E0114AB2FB34
:1006D000F3F30F4A5168C1F3881101FB03F20C4B8D
:1006E0005B68C3F3014301335B00B2FBF3F30A4AD7
:1006F000136002E0074A084B1A60054B9B68C3F37E
:100700000313074AD15C044A1368CB401360704757
:10071000003802400024F4000C00002040787D01E5
:10072000601A000808B50A4B1B783BB9002108463F
:1007300000F01EFA0122064B1A7008BD012B06D1EB
:100740000121002000F014FA0022014B1A7008BDAC
:1007500094010020F0B50268264B9A4213D003F5AD
:1007600080639A420FD003F580639A420BD003F561
:1007700080639A4207D003F580639A4203D003F561
:1007800040639A4234D1868800232DE046FA03F173
:1007900011F0010F26D0176884795D000321A9406C
:1007A000C9430F40E408AC403C4314605768847967
:1007B0004FF0010E0EFA03FE27EA0E07C4F3800481
:1007C0009C403C435460D76884790F4004F0030494
:1007D000AC403C43D46094682140C47904FA05F5E8
:1007E000294391600133DBB20F2BCFD90020F0BD3C
:1007F0000220F0BD0000024010B403680F2901D8A8
:10080000002000E00320104CA34214D004F58064C3
:10081000A34210D004F58064A3420CD004F5806498
:10082000A34208D004F58064A34204D004F54064D8
:10083000A34200D002201AB1012A03D1996101E03C
:100840000904996110BC70470000024010B5194CB2
:100850002046FFF77FFF04F10800FFF77BFF04F15C
:100860001000FFF777FF04F11800FFF773FF04F1A2
:100870002000FFF76FFF04F12800FFF76BFF04F182
:100880003000FFF767FF04F13800FFF763FF04F162
:100890004000FFF75FFF04F14800FFF75BFF04F142
:1008A0005000FFF757FF0322034B1A700122034B3E
:1008B0001A7010BD1400002095010020970100203F
:1008C00038B50546144C0022A18A04F11000FFF748
:1008D00093FF0022A1882046FFF78EFF0022A18906
:1008E00004F10800FFF788FF00240CE045FA04F249
:1008F000E01C094B03EBC00002F001028188FFF706
:100900007BFF0134E4B2072CF0D903480122818A2D
:100910001030FFF771FF38BD1400002008B528B172
:10092000012802D14031C9B200E0002181F08000ED
:10093000FFF7C6FF08BD00BF08B50120FFF7C0FFE5
:100940000220FFF7BDFF08BD08B5064BDB7933B9C0
:100950000122054B1A700222044B1A7008BDFFF7E2
:10096000EBFF08BDB0010020950100201000002021
:1009700038B50546144C0022A18A04F11000FFF797
:100980003BFF0122A1882046FFF736FF0022A18904
:1009900004F10800FFF730FF00240CE045FA04F2F0
:1009A000E01C094B03EBC00002F001028188FFF755
:1009B00023FF0134E4B2072CF0D903480122818AD5
:1009C0001030FFF719FF38BD1400002010B5104B90
:1009D000D9791B7999420BD10131C9B20020FFF7B7
:1009E0009DFF01220B4B1A7002220B4B1A7010BD97
:1009F0000F2904D100210120FFF790FF10BD044C06
:100A00002368585CFFF7B4FFE3790133E37110BD4D
:100A1000B0010020950100201000002008B51F4BF8
:100A20001B7813B9FFF712FF35E01D4B1B78033B12
:100A3000042B30D8DFE803F0031219202700194BEC
:100A40001B78132B03D80133164A137023E00022BE
:100A5000144B1A700422124B1A701CE03820FFF756
:100A60002FFF05220E4B1A7015E00E20FFF728FF0E
:100A700006220B4B1A700EE00120FFF721FF072220
:100A8000074B1A7007E00620FFF71AFF0123044AFC
:100A90001370054A1370024B187808BD97010020A7
:100AA00095010020980100209601002038B50C4CDB
:100AB0002478012C11D10B4C206021716271A3713B
:100AC0000025E57119461046FFF728FF0222044B66
:100AD0001A70054B1D70082038BD002038BD00BFBE
:100AE00095010020B00100201000002008B5094B3E
:100AF0001B7813B9FFF792FF08BD074B1B7813B1A2
:100B0000012B03D008BDFFF761FF08BDFFF71CFFF5
:100B100008BD00BF960100201000002008B500238A
:100B20001A4605210148FFF7C1FF08BD701A0008E9
:100B300010B582B0002413E00C4B53F8342000921F
:100B400003EBC4039A88ADF80420DB798DF80730F5
:100B500008238DF806306846FFF7FCFD0134E4B247
:100B6000002CE9D0002002B010BD00BF781A0008A8
:100B700000B583B00C4B53F83020009203EBC0005B
:100B80008388ADF80430C2798DF8072008228DF8EB
:100B9000062082794A4019466846FFF72DFE00205C
:100BA00003B05DF804FB00BF781A00080C4B19680D
:100BB00041F00101002301E001339BB242F20F72C8
:100BC000934202D811F0020FF6D042F21072934213
:100BD00001D0022000E00320014B1960704700BFE4
:100BE00000380240184B9B6801280CD010B1022835
:100BF00014D01EE0144A126812F0020F1BD023F02A
:100C0000030304201CE0104A126812F4003F14D0C1
:100C100023F0030343F00103042011E00A4A1268A1
:100C200012F0007F0BD023F0030343F002030420F3
:100C300006E0062004E0052002E0052000E0052093
:100C4000014A9360704700BF0038024070B4914B76
:100C50001C6B5E6B1A6C5D6C032800F20B81DFE885
:100C600000F002545DB9162900F20681DFE811F0A8
:100C700017001D00230029002F0004010401350086
:100C800004010401040104013B0004010401040106
:100C9000040104010401040104014100470001238F
:100CA00003FA01F10C430020EDE0012303FA01F106
:100CB0000C430020E7E0012303FA01F10C4300207C
:100CC000E1E0012303FA01F10C430020DBE0012302
:100CD00003FA01F10C430020D5E0012303FA01F1EE
:100CE0000C430020CFE0012303FA01F10C43002064
:100CF000C9E0012303FA01F10C430020C3E0012302
:100D000003FA01F10C430020BDE0072940F0B68052
:100D1000012303FA01F10E430020B4E01C2900F284
:100D2000AF80DFE801F00F151B21ADADADADADAD6E
:100D3000AD27ADAD2D33AD39ADADAD3F454BADAD0F
:100D4000ADAD5100012303FA01F10A4300209AE0FE
:100D5000012303FA01F10A43002094E0012303FA7E
:100D600001F10A4300208EE0012303FA01F10A4356
:100D7000002088E0012303FA01F10A43002082E009
:100D8000012303FA01F10A4300207CE0012303FA66
:100D900001F10A43002076E0012303FA01F10A433E
:100DA000002070E0012303FA01F10A4300206AE009
:100DB000012303FA01F10A43002064E0012303FA4E
:100DC00001F10A4300205EE0012303FA01F10A4326
:100DD000002058E0122955D8DFE801F00A54545495
:100DE000101654541C545422282E34543A404600B1
:100DF000012303FA01F10D43002044E0012303FA2B
:100E000001F10D4300203EE0012303FA01F10D43FF
:100E1000002038E0012303FA01F10D43002032E005
:100E2000012303FA01F10D4300202CE0012303FA12
:100E300001F10D43002026E0012303FA01F10D43E7
:100E4000002020E0012303FA01F10D4300201AE005
:100E5000012303FA01F10D43002014E0012303FAFA
:100E600001F10D4300200EE0012303FA01F10D43CF
:100E7000002008E00B2006E00C2004E00C2002E03B
:100E80000C2000E00C20034B1C635E631A645D645D
:100E900070BC704700380240044A13681B6843F076
:100EA0000603126813600020704700BF6C0000202A
:100EB000054A13680020986013681B6843F001031B
:100EC00012681360704700BF6C000020044B1A6862
:100ED0004FF47A5303FB00F050600020704700BFCE
:100EE0006C00002018B1034A1060002070470120F8
:100EF000704700BF9C01002008B5024B1B6803B17E
:100F0000984708BD9C01002008B5FFF74FFE002060
:100F1000FFF768FE00210846FFF798FE0121002038
:100F2000FFF794FE02210020FFF790FEFFF700FE7E
:100F300000F030F800F04EF8FEE700BF034B1B78DE
:100F400013B90122014B1A70704700BFA0010020A5
:100F500070B5002418E025460D4B03EBC4035B6815
:100F600053B90B4E56F834305B68984756F8343016
:100F70009B6806EBC4067360054B03EBC5035A6818
:100F8000023A5A600134E4B2022CE4D970BD00BFC9
:100F9000B801002008B500230BE00B4901EB031159
:100FA0000A4A42F83310C96802EBC30251600133A8
:100FB000DBB2022BF1D9FFF76FFF0220FFF786FFAC
:100FC0000348FFF78FFF08BD70000020B801002024
:100FD0003D0F000808B5FFF76BFF054B1B78012B91
:100FE000FBD1FFF7B5FF0022014B1A70F5E700BFF8
:100FF000A0010020014B1868704700BF00010020CD
:1010000030B5141E05469BB0184604DA8B232B60BE
:101010004FF0FF301DE04FF40273ADF80C3014BFF9
:1010200004F1FF332346029305934FF6FF730091BB
:101030000491ADF80E3002461E9B6946284600F02A
:1010400073F8431CBCBF8B232B6014B1009B0022A0
:101050001A701BB030BD000007B5009313460A4656
:10106000014603480068FFF7CBFF03B05DF804FBBF
:10107000000100202DE9F0478E689E4282460C4612
:10108000914698463ED88A8912F4906F3AD02568E6
:1010900009696F1A6569022305EB450595FBF3F5B0
:1010A0007B1C43449D4238BF1D4653050FD529463E
:1010B00000F092FB064698B13A46216900F018FB11
:1010C000A38923F4906343F08003A38113E02A46AD
:1010D00000F0E0FB064670B92169504600F02EFB97
:1010E0000C23CAF80030A38943F04003A3814FF0DA
:1010F000FF30BDE8F087266165613E44ED1B266048
:10110000A5604646464528BF4646324649462068C1
:1011100000F0F9FAA3689B1BA36023681E442660B5
:101120000020BDE8F08700002DE9F04F9DB080461B
:1011300003938B891C060D4616460DD50B695BB9CA
:10114000402100F049FB2860286118B90C23C8F839
:101150000030CDE040236B610023099320238DF8FC
:101160002930DFF89CB130238DF82A3037463C46D1
:1011700014F8013B1BB9B7EB060910D003E0252B8F
:10118000F9D02746F3E74B46324629464046FFF75B
:1011900071FF013000F0A780099B4B4409933B7815
:1011A000002B00F0A08000234FF0FF320493079340
:1011B000059206938DF853301A9301260522217863
:1011C0004E4800F045FA671C049B38B14B4A801A20
:1011D00006FA00F0184304903C46EFE7D90644BFF6
:1011E00020228DF853201A0744BF2B228DF853205C
:1011F00022782A2A03D0079A00210A200BE0039ABA
:10120000111D12680391002A10DA524243F00200C5
:10121000079204900BE0274601343B78303B092BC2
:1012200003D800FB02320121F5E701B107923B78B8
:101230002E2B1ED17B782A2B0AD1039B1A1D1B68EB
:101240000392002BB8BF4FF0FF330237059310E035
:1012500000230593781C19460A24074601303A7882
:10126000303A092A03D804FB01210123F5E703B131
:10127000059103223978224800F0EAF940B1402371
:10128000CBEB000003FA00F0049B184304900137F5
:1012900039781C488DF8281006227E1C00F0D8F9F9
:1012A00088B1194B33B9039B073323F00703083385
:1012B000039314E003AB00932A46144B04A9404661
:1012C000AFF3008007E003AB00932A460F4B04A95D
:1012D000404600F093F8B0F1FF3F824603D0099BEF
:1012E0005344099342E7AB895B0601D4099801E0B6
:1012F0004FF0FF301DB0BDE8F08F00BF981A000816
:101300009E1A0008A21A00080000000075100008CC
:101310002DE9F04791461F460A698B68DDF8208069
:101320009342B8BF1346C9F8003091F843200646EF
:101330000C4612B10133C9F800302368990642BF48
:10134000D9F800300233C9F80030256815F00605D9
:1013500010D104F1190A07E00123524639463046FC
:10136000C04701301AD00135E368D9F800209B1A34
:101370009D42F1DB94F843302268003318BF01230B
:1013800092060FD5E1185A1C302081F84300224400
:1013900094F8451082F84310023303E04FF0FF3019
:1013A000BDE8F08704F1430239463046C0470130BA
:1013B000F4D02268D9F80050E36802F00602042A4B
:1013C00008BF5D1B2269A3680CBF25EAE5750025EF
:1013D0009342C4BF9B1AED184FF000091A344D45D3
:1013E00009D00123224639463046C0470130D5D0C6
:1013F00009F10109F3E70020BDE8F0872DE9F0438A
:1014000017460A7E85B06E2A984606460C460C9B07
:1014100001F1430E00F0AE8011D8632A22D009D822
:10142000002A00F0BB80582A40F0CA8081F845208D
:10143000834955E0642A1ED0692A1CD0C0E0732A73
:1014400000F0B08009D86F2A2ED0702A40F0B88002
:101450000A6842F020020A603EE0752A24D0782A09
:101460003AD0ADE01A6801F14205111D1960136808
:1014700084F84230A8E021681A6811F0800F02D089
:10148000111D196008E011F0400F02F1040119600C
:1014900002D0B2F9003000E01368002B3CDA2D22B4
:1014A0005B4284F8432037E021681A6811F0800F0E
:1014B00002D0111D196007E011F0400F02F1040184
:1014C000196001D0138800E01368227E5C496F2AFE
:1014D00014BF0A2208221BE078225A4984F84520CA
:1014E0002268186812F0800F00F104051D6003D116
:1014F000550601D5038800E00368D00744BF42F0D9
:10150000200222601BB9226822F0200222601022F1
:10151000002084F8430001E049490A226568A5607B
:10152000002D08DB206820F0040020602BB9002D7E
:101530007DD175460CE0002B79D07546B3FBF2F0F7
:1015400002FB1033CB5C05F8013D03460028F5D1C2
:10155000082A0BD12368DA0708D5236962689A4202
:10156000DEBF302305F8013C05F1FF35C5EB0E0366
:1015700023612EE008681A68496910F0800F03D0D3
:10158000101D1860136808E010F0400F02F104000D
:101590001860136801D0198000E0196000232361EE
:1015A000754616E01A68111D1960156862680021F9
:1015B000284600F04DF808B1401B6060636804E005
:1015C00004F1420584F8422001232361002384F8BA
:1015D0004330CDF800803B4603AA21463046FFF752
:1015E00097FE013002D14FF0FF3026E023692A46F2
:1015F00039463046C0470130F5D023689B0710D5E7
:10160000002504F1190907E001234A46394630460E
:10161000C0470130E7D00135E368039A9B1A9D4229
:10162000F2DBE068039B9842B8BF184605E00B78F0
:1016300084F8423004F142058AE705B0BDE8F08342
:10164000A91A0008BA1A00080000000000000000F3
:1016500001F0FF01102A2BDB10F0070F08D010F863
:10166000013B013A8B422DD010F0070F42B3F6D167
:10167000F0B441EA012141EA014122F007047FF080
:1016800000070023F0E80256083C85EA010586EAD7
:10169000010685FA47F5A3FA87F586FA47F6A5FA13
:1016A00087F68EB9EED1F0BC01F0FF0102F007021F
:1016B00032B110F8013B013A83EA010313B1F8D1CA
:1016C0000020704701387047002D06BF35460338AB
:1016D000073815F0010F07D1013015F4807F02BFE4
:1016E000013015F4C03F0130F0BC0138704700BF35
:1016F00010B5431E0A44914204D011F8014B03F87F
:10170000014FF8E710BD884210B501EB020301D884
:10171000421E0BE09842FBD28118D21AD34204D069
:1017200013F8014D01F8014DF8E710BD994204D0BE
:1017300011F8014B02F8014FF8E710BD38B5054626
:10174000002946D051F8043C0C1F002BB8BFE41808
:1017500000F0D6F81F4A1368114613B9636014608D
:1017600032E0A3420ED92268A018834204BF186851
:101770005B68636004BF121822600C6024E0A24220
:1017800003D813465A68002AF9D118681918A142DB
:101790000BD12168014458188242196014D1106895
:1017A00052685A60014419600EE002D90C232B6084
:1017B0000AE021686018824204BF106852686260C3
:1017C00004BF091821605C602846BDE8384000F07D
:1017D00098B838BDA801002070B5CD1C25F00305D0
:1017E00008350C2D38BF0C25002D064601DBA9421B
:1017F00002D90C23336046E000F082F8234B1C68CA
:101800001A462146A1B10B685B1B0ED40B2B03D9E2
:101810000B60CC18CD501EE08C420DBF63684B6846
:101820006360136018BF0C4615E00C464968E9E791
:10183000174C23681BB9304600F052F82060294647
:10184000304600F04DF8431C18D0C41C24F00304AB
:10185000A0420DD12560304600F053F804F10B0092
:10186000231D20F00700C31A0ED05A42E25070BD6B
:10187000211A304600F034F80130EBD10C233360EC
:10188000304600F03EF8002070BD00BFA8010020E7
:10189000A4010020F8B5074615460E4621B91146A9
:1018A000BDE8F840FFF798BF1AB9FFF747FF284691
:1018B000F8BD00F027F885420ED929463846FFF7D3
:1018C0008BFF044650B131462A46FFF711FF3146DF
:1018D0003846FFF733FF01E03046F8BD2046F8BD3B
:1018E00038B5064C0023054608462360FEF79AFDEE
:1018F000431C02D1236803B12B6038BDAC0100202A
:101900007047704751F8040C0028BEBF091851F801
:10191000043CC01804387047537461636B206672CE
:10192000616D653A0A000000205230203D202025DC
:101930003038580A00000000205231203D20202578
:101940003038580A00000000205232203D20202567
:101950003038580A00000000205233203D20202556
:101960003038580A0000000020523132203D202536
:101970003038580A00000000204C52203D2020251D
:101980003038580A00000000205043203D20202518
:101990003038580A0000000020505352203D2025C6
:1019A0003038580A000000004653522F4641523A40
:1019B0000A0000002043465352203D2020253038A5
:1019C000580A00002048465352203D202025303838
:1019D000580A00002044465352203D20202530382C
:1019E000580A00002041465352203D20202530381F
:1019F000580A0000204D4D464152203D20253038E8
:101A0000580A00002042464152203D20202530380F
:101A1000580A00004D6973630A000000204C522FE1
:101A20004558435F52455455524E3D202530385855
:101A30000A0000005B486172644661756C745D0A5F
:101A4000000000005B4275734661756C745D0A00AE
:101A50005B55736167654661756C745D0A000000D3
:101A6000000000000000000001020304060708094E
:101A70004B4152494D000000000802400040000365
:101A800041707031000000004170703200000000B1
:101A90004170703300000000232D302B2000686C53
:101AA0004C00656667454647003031323334353681
:101AB00037383941424344454600303132333435BA
:0B1AC0003637383961626364656600E8
:101ACC007856341210010020000000000024F400AD
:101ADC0002FFFFFF00040240010008030004024063
:101AEC000200080300040240040008030000024046
:101AFC00010008030000024002000803000002403D
:101B0C000400080300000240080008030000024023
:101B1C0010000803000002402000080300000240EF
:101B2C0040000803000002408000080310E000E0C1
:101B3C00801A000825070008E803000000000000D8
:101B4C00881A0008ED0A00080200000000000000DE
:101B5C00901A00081D0B0008F401000000000000A2
:101B6C000000000000000000000000000000000069
:101B7C000000000000000000000000000000000059
:101B8C000000000000000000000000000000000049
:101B9C000000000000000000000000000000000039
:101BAC000000000000000000000000000000000029
:101BBC000000000000000000000000000000000019
:081BCC00A000002032547698BD
:040000050800019559
:00000001FF
