:100000000C942A000C9447000C9447000C94470071
:100010000C9447000C9447000C9447000C94470044
:100020000C9447000C9447000C9447000C94470034
:100030000C9447000C9447000C9447000C94470024
:100040000C9447000C9447000C9447000C94470014
:100050000C94470011241FBECFE5D8E0DEBFCDBF12
:1000600011E0A0E6B0E0EEE6F8E202C005900D92E5
:10007000A83AB107D9F711E0A8EAB1E001C01D9292
:10008000AD3AB107E1F70E940B060C9435140C94BD
:100090000000EF92FF920F931F937B018C0120E0F1
:1000A00030E040E05FE40E94190388238CF0C8012F
:1000B000B70120E030E040E05FE40E94C1010E940F
:1000C00049039B01AC01205030404040504806C0DD
:1000D000C801B7010E9449039B01AC01B901CA01E3
:1000E0001F910F91FF90EF900895A0E0B0E0EBE733
:1000F000F0E00C94FE13DC012B01FA019C9192308C
:1001000008F439C1EB018881823008F433C194309E
:1001100069F4843009F02FC111969C91119789815F
:10012000981709F428C1A0E6B0E025C1843009F48D
:1001300021C18230A9F4923009F01DC19A01AD01AC
:1001400088E0EA010990AE01E90109929E0181501F
:10015000C1F7E201898111969C918923818308C1AD
:10016000923009F407C112962D903C901397EB0141
:100170008A819B811496AD90BD90CD90DC901797AD
:10018000EC80FD800E811F819101281B390BB90184
:1001900037FF04C066277727621B730B6032710537
:1001A0000CF061C0121613066CF537014801062EDB
:1001B00004C096948794779467940A94D2F721E0C8
:1001C00030E040E050E004C0220F331F441F551FB1
:1001D0006A95D2F721503040404050402E213F21B7
:1001E00040235123211531054105510521F021E01E
:1001F00030E040E050E079018A01E628F72808293C
:1002000019293CC0232BD1F1260E371E350146019A
:10021000062E04C096948794779467940A94D2F734
:1002200021E030E040E050E004C0220F331F441FC3
:10023000551F6A95D2F721503040404050402A2146
:100240003B214C215D21211531054105510521F04E
:1002500021E030E040E050E059016A01A628B728CB
:10026000C828D9280BC0821593052CF01C01AA249C
:10027000BB24650103C0EE24FF24870111969C91E5
:10028000D20111968C91981709F445C0992339F041
:10029000A80197012A193B094C095D0906C0A6016E
:1002A00095012E193F09400B510B57FD08C01182D3
:1002B0003382228224833583468357831DC081E0A5
:1002C00081833382228288279927DC01821B930B4A
:1002D000A40BB50B84839583A683B7830DC0220F2F
:1002E000331F441F551F24833583468357838281E0
:1002F000938101979383828324813581468157813D
:10030000DA01C9010197A109B1098F5F9F4FAF4F72
:10031000BF4328F30BC0918333822282EA0CFB1C7B
:100320000C1D1D1DE482F5820683178383E0808304
:10033000248135814681578157FF1AC0C901AA27F8
:1003400097FDA095BA2F81709070A070B0705695EF
:10035000479537952795822B932BA42BB52B848318
:100360009583A683B7838281938101969383828349
:10037000DF0101C0D201CD01CDB7DEB7E2E10C94BF
:100380001A14A0E2B0E0E7ECF1E00C940A146983DF
:100390007A838B839C832D833E834F835887E9E048
:1003A000EE2EF12CEC0EFD1ECE010196B7010E943F
:1003B0003A058E010F5E1F4FCE010596B8010E94CF
:1003C0003A058A8991E089278A8BC701B801AE0175
:1003D000475E5F4F0E9475000E946504A096E6E0AC
:1003E0000C942614A0E2B0E0E8EFF1E00C940A14BB
:1003F00069837A838B839C832D833E834F835887C5
:10040000F9E0EF2EF12CEC0EFD1ECE010196B701A6
:100410000E943A058E010F5E1F4FCE010596B8016E
:100420000E943A05C701B801AE01475E5F4F0E94C6
:1004300075000E946504A096E6E00C942614A0E2E4
:10044000B0E0E5E2F2E00C94FE1369837A838B83DB
:100450009C832D833E834F835887CE010196BE0136
:10046000675F7F4F0E943A05CE010596BE016F5E21
:100470007F4F0E943A059985923088F089898230B1
:10048000C8F0943019F4823051F404C0843029F457
:10049000923081F480E690E0C6C0923049F420E0CA
:1004A0009A858A89981321E02A87CE010996BBC0D4
:1004B000823049F420E09A858A89981321E02A8BBA
:1004C000CE014196B0C02D843E844F8458886D88FB
:1004D0007E888F88988CEE24FF248701AA24BB2471
:1004E000650140E050E060E070E0E0E0F0E0C10174
:1004F00081709070892BE9F0E60CF71C081D191D1E
:100500009A01AB012A0D3B1D4C1D5D1D80E090E062
:10051000A0E0B0E0E614F7040805190520F481E036
:1005200090E0A0E0B0E0BA01A901480F591F6A1F8E
:100530007B1FAA0CBB1CCC1CDD1C97FE08C081E0F5
:1005400090E0A0E0B0E0A82AB92ACA2ADB2A3196B6
:10055000E032F10549F0660C771C881C991C569412
:10056000479437942794C3CFFA85EA892B893C892D
:100570008B859C85280F391F2E5F3F4F17C0CA01FE
:1005800081709070892B61F016950795F794E79428
:1005900080E090E0A0E0B0E8E82AF92A0A2B1B2BC3
:1005A00076956795579547952F5F3F4F77FDE7CF36
:1005B0000CC0440F551F661F771F17FD4160EE0CDE
:1005C000FF1C001F111F21503040403090E05907A0
:1005D00090E0690790E4790760F32B8F3C8FDB0193
:1005E000CA018F779070A070B07080349105A1051A
:1005F000B10561F447FD0AC0E114F10401051105DC
:1006000029F0405C5F4F6F4F7F4F40781A8EFE1786
:1006100011F081E08A8F4D8F5E8F6F8F78A383E01A
:10062000898FCE0149960E946504A096E2E10C9460
:100630001A14A8E1B0E0EFE1F3E00C940A14698326
:100640007A838B839C832D833E834F83588789E0F5
:10065000E82EF12CEC0EFD1ECE010196B7010E9492
:100660003A058E010F5E1F4FCE010596B8010E941C
:100670003A058985823040F08989823028F0C701A7
:10068000B8010E94B20501C08FEF6896E6E00C94B5
:100690002614ACE0B0E0EFE4F3E00C940E146983B0
:1006A0007A838B839C83CE010196BE016B5F7F4F63
:1006B0000E943A058D81823061F1823050F18430A0
:1006C00021F48E81882351F12EC02F81388537FD8A
:1006D00020C06E812F3131051CF06623F9F023C054
:1006E0008EE190E0821B930B29853A854B855C85D2
:1006F00004C056954795379527958A95D2F7662376
:10070000B1F050954095309521953F4F4F4F5F4F39
:100710000EC020E030E040E050E009C02FEF3FEF96
:100720004FEF5FE704C020E030E040E050E8B9015F
:10073000CA012C96E2E00C942A14A8E0B0E0E3EAA7
:10074000F3E00C9406147B018C01611571058105A1
:10075000910519F482E0898360C083E089838EE18A
:10076000C82ED12CDC82CB82ED82FE820F831887CB
:10077000C801B7010E941604FC013197F7FF3BC086
:10078000222733272E1B3F0B57016801022E04C07E
:10079000D694C794B794A7940A94D2F740E050E057
:1007A00060E070E081E090E0A0E0B0E004C0880F7D
:1007B000991FAA1FBB1F2A95D2F70197A109B1095A
:1007C0008E219F21A023B1230097A105B10521F01F
:1007D00041E050E060E070E04A295B296C297D2906
:1007E0004D835E836F8378878EE190E08E1B9F0B35
:1007F0009C838B8312C0309781F00E2E04C0EE0CC8
:10080000FF1C001F111F0A94D2F7ED82FE820F8396
:100810001887CE1ADF0ADC82CB821A82CE010196BB
:100820000E9465042896EAE00C942214EF92FF924D
:100830000F931F937B018C0180E0E81680E0F8069F
:1008400081E0080780E0180788F48FEFE816F104CC
:100850000105110531F028F088E090E0A0E0B0E05B
:1008600017C080E090E0A0E0B0E012C080E0E816A1
:1008700080E0F80680E0080781E0180728F088E1AA
:1008800090E0A0E0B0E004C080E190E0A0E0B0E043
:1008900020E230E040E050E0281B390B4A0B5B0BB4
:1008A00004C016950795F794E7948A95D2F7F70157
:1008B000E859FF4F8081281B310941095109C901BD
:1008C0001F910F91FF90EF900895DF92EF92FF92AA
:1008D0000F931F93FC01E480F58006811781D1807E
:1008E0008081823048F480E090E0A0E1B0E0E82A26
:1008F000F92A0A2B1B2BA5C0843009F49FC0823033
:1009000021F4EE24FF24870105C0E114F104010560
:10091000110519F4E0E0F0E096C0628173819FEF69
:10092000623879070CF05BC022E83FEF261B370BDB
:100930002A3131052CF020E030E040E050E02AC0C0
:10094000B801A701022E04C0769567955795479583
:100950000A94D2F781E090E0A0E0B0E004C0880FF4
:10096000991FAA1FBB1F2A95D2F70197A109B109A8
:100970008E219F21A023B1230097A105B10521F06D
:1009800081E090E0A0E0B0E09A01AB01282B392B88
:100990004A2B5B2BDA01C9018F779070A070B07081
:1009A00080349105A105B10539F427FF09C0205C09
:1009B0003F4F4F4F5F4F04C0215C3F4F4F4F5F4F42
:1009C000E0E0F0E02030A0E03A07A0E04A07A0E431
:1009D0005A0710F0E1E0F0E079018A0127C06038A1
:1009E000710564F5FB01E158FF4FD801C7018F770E
:1009F0009070A070B07080349105A105B10539F4F4
:100A0000E7FE0DC080E490E0A0E0B0E004C08FE31A
:100A100090E0A0E0B0E0E80EF91E0A1F1B1F17FFD0
:100A200005C016950795F794E794319687E01695DB
:100A30000795F794E7948A95D1F705C0EE24FF2433
:100A40008701EFEFF0E06E2F679566276795902F8F
:100A50009F77D794DD24D7948E2F8695492F462BE8
:100A6000582F5D29B701CA011F910F91FF90EF9098
:100A7000DF900895FC01DB01408151812281622FCA
:100A80006F7770E0221F2227221F9381892F880F02
:100A9000822B282F30E0991F9927991F11969C933C
:100AA000119721153105A9F541155105610571050C
:100AB00011F482E037C082E89FEF13969C938E93E7
:100AC00012979A01AB0167E0220F331F441F551F95
:100AD0006A95D1F783E08C930DC0220F331F441F1A
:100AE000551F12968D919C911397019713969C9385
:100AF0008E931297203080E0380780E0480780E42A
:100B0000580758F314962D933D934D935C93179784
:100B100008952F3F310579F441155105610571059F
:100B200019F484E08C93089564FF03C081E08C93F2
:100B300012C01C9210C02F57304013963C932E9336
:100B4000129783E08C9387E0440F551F661F771F31
:100B50008A95D1F7706414964D935D936D937C9351
:100B6000179708951F93DC01FB019C91923008F4C4
:100B700047C08081823008F443C0943051F411960C
:100B80001C91843099F58181682F70E0611B710997
:100B90003FC0843021F0923031F48230B9F181814C
:100BA000882389F12DC011961C9111978230F1F0A4
:100BB00081811817D9F412962D913C911397828157
:100BC00093818217930794F028173907BCF0149685
:100BD0008D919D910D90BC91A02D248135814681F0
:100BE0005781281739074A075B0718F4112341F08A
:100BF0000AC082179307A407B50740F4112319F020
:100C000061E070E005C06FEF7FEF02C060E070E070
:100C1000CB011F910895DF93CF930F92CDB7DEB72D
:100C20000E948F060E94B70E8AE00E94E00E898320
:100C30006AE070E080E090E00E94031389818130D7
:100C400099F780E00E94370664EF71E080E090E061
:100C50000E94031381E00E94370664EF71E080E098
:100C600090E00E94031382E00E943706DDCFDF93FD
:100C7000CF9300D000D0CDB7DEB78C831B828C81A0
:100C80008695869586958A838C81877089838A81EB
:100C9000853018F083E08B830EC08981813218F093
:100CA00084E08B8308C08B81882321F48C810E948F
:100CB0007F0A01C01B828B810F900F900F900F90C5
:100CC000CF91DF910895DF93CF9300D000D0CDB7BF
:100CD000DEB78C831B828C818695869586958A8368
:100CE0008C81877089838A81853018F083E08B83BB
:100CF0000EC08981813218F084E08B8308C08B811B
:100D0000882321F48C810E941B0B01C01B828B81E4
:100D10000F900F900F900F90CF91DF910895DF9378
:100D2000CF93CDB7DEB72E970FB6F894DEBF0FBEC8
:100D3000CDBF1C821A8219821B82D3C38B818695F8
:100D4000869586958A838B81877089838A81853091
:100D500018F083E08C83C2C38981813218F084E06B
:100D60008C83BCC38C81882309F0B6C38A81282F69
:100D700030E03E872D878D859E858130910509F471
:100D8000FCC02D853E85223031052CF48D859E8555
:100D9000009771F0A3C32D853E852230310509F4FB
:100DA000D1C18D859E858330910509F4B0C296C36B
:100DB0008B81882F90E0880F991FFC01E859FE4F26
:100DC0008081282F30E03C872B878B859C8500977E
:100DD00009F46CC02B853C852130310509F0CDC06C
:100DE0008B81882F90E0880F991FFC01E759FE4FF7
:100DF0008081823039F5AAE3B0E0EAE3F0E0808157
:100E0000482F8981282F30E081E090E002C0880FD0
:100E1000991F2A95E2F7842B8C93ABE3B0E0EBE3C8
:100E2000F0E08081482F8981282F30E081E090E038
:100E3000022E02C0880F991F0A94E2F7809584233E
:100E40008C939BC08B81882F90E0880F991FFC01A9
:100E5000E759FE4F8081833031F5AAE3B0E0EAE341
:100E6000F0E08081482F8981282F30E081E090E0F8
:100E700002C0880F991F2A95E2F7842B8C93ABE36D
:100E8000B0E0EBE3F0E08081482F8981282F30E04B
:100E900081E090E0022E02C0880F991F0A94E2F7C9
:100EA000842B8C936AC085E08C8367C08B81882FEC
:100EB00090E0880F991FFC01E759FE4F808188233D
:100EC00039F5AAE3B0E0EAE3F0E08081482F8981B8
:100ED000282F30E081E090E002C0880F991F2A950A
:100EE000E2F7809584238C93ABE3B0E0EBE3F0E092
:100EF0008081482F8981282F30E081E090E0022E08
:100F000002C0880F991F0A94E2F7842B8C9335C096
:100F10008B81882F90E0880F991FFC01E759FE4FC5
:100F20008081813041F5AAE3B0E0EAE3F0E080811E
:100F3000482F8981282F30E081E090E002C0880F9F
:100F4000991F2A95E2F7809584238C93ABE3B0E058
:100F5000EBE3F0E08081482F8981282F30E081E0A9
:100F600090E0022E02C0880F991F0A94E2F7809544
:100F700084238C9302C085E08C838B81882F90E042
:100F8000880F991FFC01E859FE4F8081282F30E01F
:100F90003A87298789859A85009709F46CC0298545
:100FA0003A852130310509F0CDC08B81882F90E042
:100FB000880F991FFC01E759FE4F8081823039F577
:100FC000A7E3B0E0E7E3F0E08081482F8981282F94
:100FD00030E081E090E002C0880F991F2A95E2F787
:100FE000842B8C93A8E3B0E0E8E3F0E08081482F05
:100FF0008981282F30E081E090E0022E02C0880F26
:10100000991F0A94E2F7809584238C939BC08B816F
:10101000882F90E0880F991FFC01E759FE4F8081CF
:10102000833031F5A7E3B0E0E7E3F0E08081482FBB
:101030008981282F30E081E090E002C0880F991F5D
:101040002A95E2F7842B8C93A8E3B0E0E8E3F0E084
:101050008081482F8981282F30E081E090E0022EA6
:1010600002C0880F991F0A94E2F7842B8C936AC000
:1010700085E08C8367C08B81882F90E0880F991F53
:10108000FC01E759FE4F8081882339F5A7E3B0E0E2
:10109000E7E3F0E08081482F8981282F30E081E06C
:1010A00090E002C0880F991F2A95E2F7809584236B
:1010B0008C93A8E3B0E0E8E3F0E08081482F8981D9
:1010C000282F30E081E090E0022E02C0880F991FA7
:1010D0000A94E2F7842B8C9335C08B81882F90E0A3
:1010E000880F991FFC01E759FE4F8081813041F53F
:1010F000A7E3B0E0E7E3F0E08081482F8981282F63
:1011000030E081E090E002C0880F991F2A95E2F755
:10111000809584238C93A8E3B0E0E8E3F0E080813D
:10112000482F8981282F30E081E090E0022E02C014
:10113000880F991F0A94E2F7809584238C9302C04C
:1011400085E08C838B81882F90E0880F991FFC01AC
:10115000E859FE4F8081282F30E038872F838F8118
:101160009885009709F46CC02F81388521303105AE
:1011700009F0CDC08B81882F90E0880F991FFC016A
:10118000E759FE4F8081823039F5A4E3B0E0E4E313
:10119000F0E08081482F8981282F30E081E090E0C5
:1011A00002C0880F991F2A95E2F7842B8C93A5E340
:1011B000B0E0E5E3F0E08081482F8981282F30E01E
:1011C00081E090E0022E02C0880F991F0A94E2F796
:1011D000809584238C939BC08B81882F90E0880F0F
:1011E000991FFC01E759FE4F8081833031F5A4E35C
:1011F000B0E0E4E3F0E08081482F8981282F30E0DF
:1012000081E090E002C0880F991F2A95E2F7842BB5
:101210008C93A5E3B0E0E5E3F0E08081482F89817D
:10122000282F30E081E090E0022E02C0880F991F45
:101230000A94E2F7842B8C936AC085E08C8367C0A4
:101240008B81882F90E0880F991FFC01E759FE4F92
:101250008081882339F5A4E3B0E0E4E3F0E0808105
:10126000482F8981282F30E081E090E002C0880F6C
:10127000991F2A95E2F7809584238C93A5E3B0E02B
:10128000E5E3F0E08081482F8981282F30E081E07C
:1012900090E0022E02C0880F991F0A94E2F7842B77
:1012A0008C9335C08B81882F90E0880F991FFC01AB
:1012B000E759FE4F8081813041F5A4E3B0E0E4E3DB
:1012C000F0E08081482F8981282F30E081E090E094
:1012D00002C0880F991F2A95E2F7809584238C938A
:1012E000A5E3B0E0E5E3F0E08081482F8981282F75
:1012F00030E081E090E0022E02C0880F991F0A942E
:10130000E2F7809584238C9302C085E08C838B81E7
:10131000882F90E0880F991FFC01E859FE4F8081CB
:10132000282F30E03E832D838D819E81009709F424
:101330006CC02D813E812130310509F0CFC08B81F9
:10134000882F90E0880F991FFC01E759FE4F80819C
:10135000823039F5A1E3B0E0E1E3F0E08081482F8D
:101360008981282F30E081E090E002C0880F991F2A
:101370002A95E2F7842B8C93A2E3B0E0E2E3F0E05D
:101380008081482F8981282F30E081E090E0022E73
:1013900002C0880F991F0A94E2F7809584238C93EA
:1013A0009DC08B81882F90E0880F991FFC01E75921
:1013B000FE4F8081833031F5A1E3B0E0E1E3F0E05E
:1013C0008081482F8981282F30E081E090E002C0A1
:1013D000880F991F2A95E2F7842B8C93A2E3B0E043
:1013E000E2E3F0E08081482F8981282F30E081E01E
:1013F00090E0022E02C0880F991F0A94E2F7842B16
:101400008C936CC085E08C8369C08B81882F90E0C1
:10141000880F991FFC01E759FE4F8081882339F519
:10142000A1E3B0E0E1E3F0E08081482F8981282F3B
:1014300030E081E090E002C0880F991F2A95E2F722
:10144000809584238C93A2E3B0E0E2E3F0E0808116
:10145000482F8981282F30E081E090E0022E02C0E1
:10146000880F991F0A94E2F7842B8C9337C08B81E5
:10147000882F90E0880F991FFC01E759FE4F80816B
:10148000813039F5A1E3B0E0E1E3F0E08081482F5D
:101490008981282F30E081E090E002C0880F991FF9
:1014A0002A95E2F7809584238C93A2E3B0E0E2E3EF
:1014B000F0E08081482F8981282F30E081E090E0A2
:1014C000022E02C0880F991F0A94E2F7842B8C9396
:1014D00005C085E08C8302C081E08C838B818F5FA7
:1014E0008B838B81803208F429CC8C812E960FB6A9
:1014F000F894DEBF0FBECDBFCF91DF910895DF938B
:10150000CF9300D000D000D0CDB7DEB78C831B8244
:101510008C818695869586958A838C818770898350
:101520008A81853018F083E08B837BC0898181328A
:1015300018F084E08B8375C08B81882309F06FC01D
:101540008A81282F30E03E832D838D819E818130DA
:10155000910549F12D813E81223031052CF48D8198
:101560009E81009761F05DC02D813E812230310562
:1015700071F18D819E8183309105E9F152C0ABE319
:10158000B0E0EBE3F0E08081482F8981282F30E044
:1015900081E090E0022E02C0880F991F0A94E2F7C2
:1015A000842B8C933EC0A8E3B0E0E8E3F0E08081B8
:1015B000482F8981282F30E081E090E0022E02C080
:1015C000880F991F0A94E2F7842B8C932AC0A5E315
:1015D000B0E0E5E3F0E08081482F8981282F30E0FA
:1015E00081E090E0022E02C0880F991F0A94E2F772
:1015F000842B8C9316C0A2E3B0E0E2E3F0E080819C
:10160000482F8981282F30E081E090E0022E02C02F
:10161000880F991F0A94E2F7842B8C9302C081E013
:101620008B838B8126960FB6F894DEBF0FBECDBF9D
:10163000CF91DF910895DF93CF9300D000D000D0F9
:10164000CDB7DEB78C831B828C8186958695869577
:101650008A838C81877089838A81853018F083E042
:101660008B8380C08981813218F084E08B837AC0BB
:101670008B81882309F074C08A81282F30E03E8353
:101680002D838D819E818130910559F12D813E817F
:10169000223031052CF48D819E81009769F062C063
:1016A0002D813E812230310589F18D819E818330EB
:1016B000910509F440C056C0ABE3B0E0EBE3F0E0C5
:1016C0008081482F8981282F30E081E090E0022E30
:1016D00002C0880F991F0A94E2F7809584238C93A7
:1016E00041C0A8E3B0E0E8E3F0E08081482F8981C1
:1016F000282F30E081E090E0022E02C0880F991F71
:101700000A94E2F7809584238C932CC0A5E3B0E083
:10171000E5E3F0E08081482F8981282F30E081E0E7
:1017200090E0022E02C0880F991F0A94E2F780957C
:1017300084238C9317C0A2E3B0E0E2E3F0E0808161
:10174000482F8981282F30E081E090E0022E02C0EE
:10175000880F991F0A94E2F7809584238C9302C026
:1017600081E08B838B8126960FB6F894DEBF0FBE87
:10177000CDBFCF91DF910895DF93CF93CDB7DEB783
:1017800028970FB6F894DEBF0FBECDBF8C837E8343
:101790006D831B828C818695869586958A838C8144
:1017A000877089838A81853018F083E08B8393C0AA
:1017B0008981813218F084E08B838DC08D819E8178
:1017C000009719F482E08B8386C08B81882309F00F
:1017D00080C08A81282F30E038872F838F819885B9
:1017E0008130910571F12F813885223031052CF43B
:1017F0008F819885009769F06EC02F8138852230DF
:101800003105B9F18F8198858330910509F449C07C
:1018100062C0A9E3B0E0E9E3F0E08081482F89816C
:10182000282F30E081E090E0022E02C0880F991F3F
:101830000A94E2F784238C938C91ED81FE8180835E
:101840004AC0A6E3B0E0E6E3F0E08081482F89815A
:10185000282F30E081E090E0022E02C0880F991F0F
:101860000A94E2F784238C938C91ED81FE8180832E
:1018700032C0A3E3B0E0E3E3F0E08081482F898148
:10188000282F30E081E090E0022E02C0880F991FDF
:101890000A94E2F784238C938C91ED81FE818083FE
:1018A0001AC0A0E3B0E0E0E3F0E08081482F898136
:1018B000282F30E081E090E0022E02C0880F991FAF
:1018C0000A94E2F784238C938C91ED81FE818083CE
:1018D00002C081E08B838B8128960FB6F894DEBF1F
:1018E0000FBECDBFCF91DF910895DF93CF9300D08E
:1018F00000D00F92CDB7DEB78A836B8319828A81BD
:10190000843018F083E0898335C08981882391F57C
:101910008A81282F30E03D832C838C819D8181300A
:101920009105D1F02C813D81223031052CF48C8140
:101930009D81009761F01EC02C813D8122303105D0
:1019400081F08C819D818330910581F013C0EBE3A0
:10195000F0E08B8180830EC0E8E3F0E08B81808330
:1019600009C0E5E3F0E08B81808304C0E2E3F0E0AE
:101970008B81808389810F900F900F900F900F9033
:10198000CF91DF910895DF93CF93CDB7DEB727973F
:101990000FB6F894DEBF0FBECDBF8C836D831B8264
:1019A0008C818695869586958A838C8187708983BC
:1019B0008A81853018F083E08B83F2C0898181327F
:1019C00018F084E08B83ECC08A81282F30E03F83BD
:1019D0002E838E819F818130910509F449C02E812B
:1019E0003F81223031052CF48E819F81009771F068
:1019F000D5C02E813F812230310509F46BC08E8124
:101A00009F818330910509F497C0C8C08D818330D0
:101A1000A1F4ABE3B0E0EBE3F0E08081482F8981F3
:101A2000282F30E081E090E0022E02C0880F991F3D
:101A30000A94E2F7842B8C93B3C08D818230A9F491
:101A4000ABE3B0E0EBE3F0E08081482F8981282F01
:101A500030E081E090E0022E02C0880F991F0A94C6
:101A6000E2F7809584238C939BC081E08B8398C0A0
:101A70008D818330A1F4A8E3B0E0E8E3F0E0808159
:101A8000482F8981282F30E081E090E0022E02C0AB
:101A9000880F991F0A94E2F7842B8C9381C08D8163
:101AA0008230A9F4A8E3B0E0E8E3F0E08081482FB9
:101AB0008981282F30E081E090E0022E02C0880F5B
:101AC000991F0A94E2F7809584238C9369C081E082
:101AD0008B8366C08D818330A1F4A5E3B0E0E5E39C
:101AE000F0E08081482F8981282F30E081E090E06C
:101AF000022E02C0880F991F0A94E2F7842B8C9360
:101B00004FC08D818230A9F4A5E3B0E0E5E3F0E0B9
:101B10008081482F8981282F30E081E090E0022EDB
:101B200002C0880F991F0A94E2F7809584238C9352
:101B300037C081E08B8334C08D818330A1F4A2E370
:101B4000B0E0E2E3F0E08081482F8981282F30E087
:101B500081E090E0022E02C0880F991F0A94E2F7FC
:101B6000842B8C931DC08D818230A9F4A2E3B0E058
:101B7000E2E3F0E08081482F8981282F30E081E086
:101B800090E0022E02C0880F991F0A94E2F7809518
:101B900084238C9305C081E08B8302C083E08B8318
:101BA0008B8127960FB6F894DEBF0FBECDBFCF91C5
:101BB000DF910895DF93CF9300D00F92CDB7DEB7BA
:101BC0001A82AFE5B0E0EFE5F0E0808180788C9399
:101BD0008C9189838981813051F0AFE5B0E0EFE5E8
:101BE000F0E0808180688C938A818B8302C081E0E1
:101BF0008B838B810F900F900F90CF91DF91089581
:101C0000DF93CF9300D00F92CDB7DEB71A82AFE546
:101C1000B0E0EFE5F0E0808180788C938C9189834F
:101C20008981882351F0AFE5B0E0EFE5F0E08081F5
:101C30008F778C938A818B8302C081E08B838B8129
:101C40000F900F900F90CF91DF910895DF93CF9376
:101C50000F92CDB7DEB71982ADE2B0E0EDE2F0E071
:101C6000808180648C930E94000EADE2B0E0EDE2D2
:101C7000F0E080818F778C93AEE2B0E0EEE2F0E0AE
:101C800080818F778C93ADE2B0E0EDE2F0E080816F
:101C900080628C93ADE2B0E0EDE2F0E080818061A3
:101CA0008C93ADE2B0E0EDE2F0E08081877F8C9331
:101CB000ADE2B0E0EDE2F0E080818B7F8C93ADE2AD
:101CC000B0E0EDE2F0E0808181608C93ADE2B0E0C5
:101CD000EDE2F0E080818D7F8C93AEE2B0E0EEE249
:101CE000F0E0808181608C9389810F90CF91DF91AA
:101CF0000895DF93CF930F92CDB7DEB719820E947C
:101D0000000EADE2B0E0EDE2F0E080818F778C93E1
:101D1000AEE2B0E0EEE2F0E080818F778C93ADE24E
:101D2000B0E0EDE2F0E0808180618C93ADE2B0E064
:101D3000EDE2F0E0808181608C93ADE2B0E0EDE215
:101D4000F0E080818D7F8C93AEE2B0E0EEE2F0E0D7
:101D500080818E7F8C93ADE2B0E0EDE2F0E0808197
:101D600080648C9389810F90CF91DF910895DF93E8
:101D7000CF930F92CDB7DEB719820E94000EADE26D
:101D8000B0E0EDE2F0E080818F778C93AEE2B0E0DE
:101D9000EEE2F0E080818F778C93ADE2B0E0EDE28F
:101DA000F0E080818F7E8C93ADE2B0E0EDE2F0E078
:101DB000808180648C9389810F90CF91DF91089509
:101DC000DF93CF9300D000D000D0CDB7DEB78E83A5
:101DD0001D821C828FEF8B83AEE2B0E0EEE2F0E07A
:101DE000808180788C938C918A83AEE2B0E0EEE2C1
:101DF000F0E0808180748C938C918983EFE2F0E035
:101E00008E81808303C08B8181508B838A81813056
:101E100039F08981882321F49B818C81891798F37B
:101E20008981813011F482E08D83EFE2F0E08081DE
:101E300026960FB6F894DEBF0FBECDBFCF91DF91CF
:101E400008951F920F920FB60F9211248F93EF9364
:101E5000FF93DF93CF93CDB7DEB7EFE2F0E0809151
:101E6000A8018083CF91DF91FF91EF918F910F9027
:101E70000FBE0F901F901895DF93CF930F92CDB7A1
:101E8000DEB71982A3E5B0E0E3E5F0E080818F7B67
:101E90008C93A3E5B0E0E3E5F0E08081877F8C934D
:101EA000A3E5B0E0E3E5F0E080818E7F8C93A3E5CD
:101EB000B0E0E3E5F0E0808182608C93A3E5B0E0E0
:101EC000E3E5F0E080818B7F8C9388E0898381E07B
:101ED0008983A9E5B0E0E9E5F0E080818E7F8C930D
:101EE000A9E5B0E0E9E5F0E080818D7F8C938AE0A0
:101EF0008983A3E5B0E0E3E5F0E080818E7F8C93F9
:101F0000A3E5B0E0E3E5F0E080818D7F8C938CE089
:101F1000898389810F90CF91DF910895DF93CF93CB
:101F2000CDB7DEB72D970FB6F894DEBF0FBECDBF8D
:101F30009B838A831982EA81FB818081843008F047
:101F400060C0EA81FB818081282F30E03D872C87AB
:101F50008C859D858130910509F442C02C853D8595
:101F6000223031052CF48C859D85009761F047C0A7
:101F70002C853D8522303105A9F08C859D858330E7
:101F80009105F9F03CC0A3E5B0E0E3E5F0E0808125
:101F90008F7B8C93A3E5B0E0E3E5F0E08081877F61
:101FA0008C932FC0A3E5B0E0E3E5F0E080818F7B68
:101FB0008C93A3E5B0E0E3E5F0E0808188608C934A
:101FC00020C0A3E5B0E0E3E5F0E0808180648C937D
:101FD000A3E5B0E0E3E5F0E0808188608C9311C078
:101FE000A3E5B0E0E3E5F0E0808180648C93A3E5B5
:101FF000B0E0E3E5F0E08081877F8C9302C082E06F
:102000008983EA81FB818181883008F0EDC0EA8113
:10201000FB818181282F30E03B872A878A859B8539
:102020008330910509F470C02A853B852430310541
:1020300084F48A859B8581309105D1F12A853B8581
:10204000223031050CF04AC08A859B850097D1F07B
:10205000C9C02A853B852530310509F481C08A85B0
:102060009B85853091050CF465C02A853B8526301B
:10207000310509F48BC08A859B858730910509F469
:102080009BC0B0C0A3E5B0E0E3E5F0E080818E7FC7
:102090008C93A3E5B0E0E3E5F0E080818D7F8C9345
:1020A000A3E5B0E0E3E5F0E080818B7F8C939CC0FA
:1020B000A3E5B0E0E3E5F0E0808181608C93A3E5E7
:1020C000B0E0E3E5F0E080818D7F8C93A3E5B0E0A4
:1020D000E3E5F0E080818B7F8C9386C0A3E5B0E0E0
:1020E000E3E5F0E080818E7F8C93A3E5B0E0E3E54B
:1020F000F0E0808182608C93A3E5B0E0E3E5F0E05E
:1021000080818B7F8C9370C0A3E5B0E0E3E5F0E0C5
:10211000808181608C93A3E5B0E0E3E5F0E080810D
:1021200082608C93A3E5B0E0E3E5F0E080818B7FF3
:102130008C935AC0A3E5B0E0E3E5F0E080818E7FA8
:102140008C93A3E5B0E0E3E5F0E080818D7F8C9394
:10215000A3E5B0E0E3E5F0E0808184608C9344C0C7
:10216000A3E5B0E0E3E5F0E0808181608C93A3E536
:10217000B0E0E3E5F0E080818D7F8C93A3E5B0E0F3
:10218000E3E5F0E0808184608C932EC0A3E5B0E0AD
:10219000E3E5F0E080818E7F8C93A3E5B0E0E3E59A
:1021A000F0E0808182608C93A3E5B0E0E3E5F0E0AD
:1021B000808184608C9318C0A3E5B0E0E3E5F0E093
:1021C000808181608C93A3E5B0E0E3E5F0E080815D
:1021D00082608C93A3E5B0E0E3E5F0E08081846069
:1021E0008C9302C084E08983EA81FB818281282F5D
:1021F00030E039872887888599858130910521F1DC
:1022000028853985223031052CF4888599850097F9
:1022100061F047C0288539852230310521F1888554
:1022200099858330910571F13CC0A3E5B0E0E3E509
:10223000F0E080818E7F8C93A3E5B0E0E3E5F0E0F1
:1022400080818D7F8C932FC0A3E5B0E0E3E5F0E0C3
:10225000808181608C93A3E5B0E0E3E5F0E08081CC
:102260008D7F8C9320C0A3E5B0E0E3E5F0E08081B2
:102270008E7F8C93A3E5B0E0E3E5F0E0808182609F
:102280008C9311C0A3E5B0E0E3E5F0E080818160CC
:102290008C93A3E5B0E0E3E5F0E0808182608C936D
:1022A00002C08AE08983EA81FB818381843008F05F
:1022B0005FC0EA81FB818381282F30E03F832E833A
:1022C0008E819F818130910521F12E813F812230C5
:1022D00031052CF48E819F81009761F047C02E81DB
:1022E0003F812230310521F18E819F81833091051C
:1022F00071F13CC0A3E5B0E0E3E5F0E080818E7FC2
:102300008C93A3E5B0E0E3E5F0E080818D7F8C93D2
:102310002FC0A3E5B0E0E3E5F0E0808181608C931D
:10232000A3E5B0E0E3E5F0E080818D7F8C9320C0F1
:10233000A3E5B0E0E3E5F0E080818E7F8C93A3E538
:10234000B0E0E3E5F0E0808182608C9311C0A3E50A
:10235000B0E0E3E5F0E0808181608C93A3E5B0E03C
:10236000E3E5F0E0808182608C9302C08AE089839B
:10237000EA81FB818481843008F05FC0EA81FB81BF
:102380008481282F30E03D832C838C819D81813096
:10239000910521F12C813D81223031052CF48C8175
:1023A0009D81009761F047C02C813D81223031052D
:1023B00021F18C819D818330910571F13CC0A3E5B1
:1023C000B0E0E3E5F0E080818E7F8C93A3E5B0E0A0
:1023D000E3E5F0E080818D7F8C932FC0A3E5B0E032
:1023E000E3E5F0E0808181608C93A3E5B0E0E3E574
:1023F000F0E080818D7F8C9320C0A3E5B0E0E3E521
:10240000F0E080818E7F8C93A3E5B0E0E3E5F0E01F
:10241000808182608C9311C0A3E5B0E0E3E5F0E039
:10242000808181608C93A3E5B0E0E3E5F0E08081FA
:1024300082608C9302C08AE0898389812D960FB6D1
:10244000F894DEBF0FBECDBFCF91DF910895DF932B
:10245000CF9300D0CDB7DEB78A8319828A818F3FB0
:1024600029F0E2E5F0E08A81808302C08EE0898372
:1024700089810F900F90CF91DF910895DF93CF93D3
:1024800000D0CDB7DEB78A8319828A818F3F29F0C9
:10249000ECE5F0E08A81808302C08EE08983898147
:1024A0000F900F90CF91DF910895DF93CF9300D0DD
:1024B0000F92CDB7DEB79B838A831982A9E5B0E07E
:1024C000E9E5F0E0808181608C938A819B810097AF
:1024D00039F08A819B819093AA018093A90102C05F
:1024E0008DE0898389810F900F900F90CF91DF91BC
:1024F0000895DF93CF9300D00F92CDB7DEB79B83C3
:102500008A831982A9E5B0E0E9E5F0E08081826084
:102510008C938A819B81009739F08A819B8190936B
:10252000AC018093AB0102C08DE0898389810F905B
:102530000F900F90CF91DF9108951F920F920FB6D9
:102540000F9211242F933F934F935F936F937F9339
:102550008F939F93AF93BF93EF93FF93DF93CF93AB
:10256000CDB7DEB78091A9019091AA01009729F01B
:10257000E091A901F091AA010995CF91DF91FF9116
:10258000EF91BF91AF919F918F917F916F915F91EB
:102590004F913F912F910F900FBE0F901F90189564
:1025A0001F920F920FB60F9211242F933F934F93C8
:1025B0005F936F937F938F939F93AF93BF93EF93AB
:1025C000FF93DF93CF93CDB7DEB78091AB019091AE
:1025D000AC01009729F0E091AB01F091AC010995B5
:1025E000CF91DF91FF91EF91BF91AF919F918F912B
:1025F0007F916F915F914F913F912F910F900FBEFF
:102600000F901F901895DF93CF93CDB7DEB7299722
:102610000FB6F894DEBF0FBECDBF6E837F83888771
:1026200099871D8219821A821B821C826E817F818A
:10263000888599850E949D03DC01CB01BC01CD01F9
:1026400026E636E647EB52E40E941F02DC01CB018E
:10265000BC01CD0120E030E040E051E40E941F02C7
:10266000DC01CB01BC01CD010E944900DC01CB01A2
:102670008E839F83A887B9870CC0000089819A81C7
:10268000AB81BC810196A11DB11D89839A83AB8367
:10269000BC8329813A814B815C818E819F81A88591
:1026A000B985281739074A075B0738F38D812996C2
:1026B0000FB6F894DEBF0FBECDBFCF91DF91089566
:1026C000DF93CF93CDB7DEB72D970FB6F894DEBF6B
:1026D0000FBECDBF6A877B878C879D8719861D8239
:1026E0001E821F82188619821A821B821C826A85AA
:1026F0007B858C859D850E949D03DC01CB01BC01FF
:10270000CD0126E636E647EB52E40E941F02DC01CB
:10271000CB01BC01CD012FE632E143E05CE30E9436
:102720001F02DC01CB01BC01CD010E944900DC018C
:10273000CB018D839E83AF83B8878A859B85AC85CB
:10274000BD8520EA36E841E050E0BC01CD010E94A1
:10275000DC13DA01C9019C01AD018D819E81AF813D
:10276000B885281739074A075B0779F081E0898720
:102770000CC0000089819A81AB81BC810196A11DAA
:10278000B11D89839A83AB83BC8329813A814B81B4
:102790005C818D819E81AF81B885281739074A07F2
:1027A0005B0738F389852D960FB6F894DEBF0FBE10
:1027B000CDBFCF91DF910895A1E21A2EAA1BBB1BBA
:1027C000FD010DC0AA1FBB1FEE1FFF1FA217B307FD
:1027D000E407F50720F0A21BB30BE40BF50B661F13
:1027E000771F881F991F1A9469F7609570958095D7
:1027F00090959B01AC01BD01CF0108952F923F92AE
:102800004F925F926F927F928F929F92AF92BF9200
:10281000CF92DF92EF92FF920F931F93CF93DF93AC
:10282000CDB7DEB7CA1BDB0B0FB6F894DEBF0FBE09
:10283000CDBF09942A88398848885F846E847D8456
:102840008C849B84AA84B984C884DF80EE80FD8058
:102850000C811B81AA81B981CE0FD11D0FB6F894CE
:0E286000DEBF0FBECDBFED010895F894FFCF8F
:10286E000000000000000000000102020303030349
:10287E000404040404040404050505050505050502
:10288E0005050505050505050606060606060606E2
:10289E0006060606060606060606060606060606CA
:1028AE0006060606060606060707070707070707B2
:1028BE00070707070707070707070707070707079A
:1028CE00070707070707070707070707070707078A
:1028DE00070707070707070707070707070707077A
:1028EE000707070707070707080808080808080862
:1028FE00080808080808080808080808080808084A
:10290E000808080808080808080808080808080839
:10291E000808080808080808080808080808080829
:10292E000808080808080808080808080808080819
:10293E000808080808080808080808080808080809
:10294E0008080808080808080808080808080808F9
:10295E0008080808080808080808080808080808E9
:10296E00080808080808080801020102010201020D
:10297E000102010201020102010201020102010231
:10298E00000000000102000001020102010201022A
:10299E000102010201020102000001020102010214
:0829AE00010201020000010218
:00000001FF
