:020000040800F2
:1000000000000120C5020008CD020008D10200084E
:1000100045030008490300089103000800000000A0
:10002000000000000000000000000000D9030008EC
:10003000DD03000800000000E1030008951400083B
:10004000F5030008F5030008F5030008F5030008B0
:10005000F5030008F5030008F5030008F5030008A0
:10006000F5030008F5030008F5030008F503000890
:10007000F5030008F5030008F5030008F503000880
:10008000F5030008F5030008F50300080000000070
:10009000000000000000000000000000F503000860
:1000A000F5030008F5030008F5030008F503000850
:1000B000F5030008F5030008F5030008F503000840
:1000C000F5030008F5030008F5030008F503000830
:1000D000F5030008F5030008F50300080000000020
:1000E000F5030008F5030008F50300080000000010
:1000F000000000000000000000000000F503000800
:1001000000000000F5030008F5030008F5030008EF
:1001100000000000000000000000000000000000DF
:10012000F5030008F5030008F5030008F5030008CF
:10013000F5030008000000000000000000000000BF
:10014000000000000000000000000000F5030008AF
:10015000F5030008F5030008F5030008F50300089F
:10016000F5030008F503000800000000000000008F
:10017000000000000000000000000000000000007F
:1001800000000000F503000800000000000000006F
:10019000F503000800B583B000F0BCF9384B394ACC
:1001A0001360394A136039490CE00A684B6801F161
:1001B0000C04886803E01168196004330432984223
:1001C000F9D82146324B9942EFD32E4B1A68314B66
:1001D0009A4204D12C4B1A682F4B9A4200D0FEE76A
:1001E000274B2E4A13602E4A13602E4B0AE0194605
:1001F00051F8082B5B6802E00020106004329A423C
:10020000FAD30B46284A9342F1D3244B1B6813B907
:10021000234B1B6803B1FEE700F088F9694601A88B
:1002200000F022F9214C224B1C1BA410002504E0F5
:100230001E4B53F8253098470135AC42F8DC1D4C75
:100240001D4B1C1BA410002504E01A4B53F825304D
:1002500098470135AC42F8DC0099019801F08CF91F
:100260000546164C164B1C1BA41004E0013C134B16
:1002700053F824309847002CF8DC284600F0D0F8DA
:10028000BABADECA0000002048010020F8030008C6
:100290001004000878563412325476984C0100202D
:1002A0001C0200201004000820040008200400089C
:1002B000200400082004000820040008200400088E
:1002C0002004000808B5FFF765FF00BF00BEFEE789
:1002D0001EF0040F0CBFEFF30880EFF309807146A6
:1002E000414A10472DE9F04182B004468846134B3D
:1002F0005E6B9F6B9D6A1B6B13F0020F0DD00F4B53
:10030000DB6A002B09DA4BF6AB6100F08BF920B108
:100310004FF00042094BDA620CE0094800F0ACF8FB
:10032000CDF800803B4632462946204600F002F9CF
:1003300000BEFEE702B0BDE8F08100BF00ED00E0C6
:10034000E41F000800BEFEE71EF0040F0CBFEFF331
:100350000880EFF309807146244A10472DE9F041E7
:1003600082B004468846084B5E6B9F6B9D6A0748C7
:1003700000F082F8CDF800803B4632462946204600
:1003800000F0D8F800BEFEE700ED00E0F41F000822
:100390001EF0040F0CBFEFF30880EFF309807146E5
:1003A000134A10472DE9F04182B004468846084BB5
:1003B0005E6B9F6B9D6A074800F05EF8CDF8008089
:1003C0003B4632462946204600F0B4F800BEFEE720
:1003D00000ED00E00020000800BEFEE700BEFEE7E2
:1003E00000BEFEE770470000E50200085D0300085C
:0803F000A503000800BEFEE7B2
:1003F8006C200008000000204C0100206C20000840
:1004080000000010000000104C0100202002002015
:080418000000001000000010BC
:10042000FEE700BF08B50D4B1B6813B90C4A0B4B18
:100430001A600A4B1A68C31C23F0030313440949CA
:100440008B4206D901F0B2F80C2303604FF0FF3065
:1004500008BD02490B60104608BD00BF50010020D6
:100460002002002000FC002001230360014B0B60F0
:10047000704700BF040000200FB400B583B004AB88
:1004800053F8042B01938021064801F0C1F800289D
:1004900003DD0146034800F039F803B05DF804EBD2
:1004A00004B07047580100202DE9F04385B00446A0
:1004B0000F46435613BB042528462146ABBE0446CF
:1004C0001FE03546102E28BF1025002306E014F942
:1004D000011B04AA1A4402F8101C0133AB42F6D3E4
:1004E00004AA1344002203F8102CE9464FF0040834
:1004F00040464946ABBE8046761B00E00E46002EC5
:10050000DFD1384605B0BDE8F08300BF08B5FFF77E
:10051000CBFF08BD08B500F095F8024B024A9A607F
:1005200008BD00BF00ED00E00000000808B500F0C5
:10053000A9F808BDF8B504460D4617461E462648DC
:10054000FFF79AFF21682548FFF796FF6168244866
:10055000FFF792FFA1682348FFF78EFFE16822486A
:10056000FFF78AFF21692148FFF786FF616920486C
:10057000FFF782FFA1691F48FFF77EFFE1691E4870
:10058000FFF77AFF1D48FFF777FF29461C48FFF762
:1005900073FF1C4CE16A1C48FFF76EFF216B1B4880
:1005A000FFF76AFFE16B1A48FFF766FF15F0800F4F
:1005B00003D039461748FFF75FFF15F4004F03D00B
:1005C00031461548FFF758FF1448FFF755FF0699C5
:1005D0001348FFF751FFF8BDC81E0008D81E0008D9
:1005E000E81E0008F81E0008081F0008181F000871
:1005F000281F0008381F0008481F0008581F00085F
:10060000641F000800ED00E0741F0008841F00084C
:10061000941F0008A41F0008B41F0008C41F00088E
:10062000CC1F000883691A888A4207D10268033AFE
:10063000012A05D8023383610120704700207047EA
:10064000002070470C4B1A6842F001021A6000212A
:1006500099601A6822F0847222F480321A60074A84
:100660005A601A6822F480221A60D9604FF0006242
:10067000034B9A60704700BF0038024010300024DE
:1006800000ED00E0224B9B6803F00C03042B07D025
:10069000082B09D0002B2DD11E4A1F4B1A602CE0CD
:1006A0001E4A1D4B1A6028E0194B5A685B6803F01C
:1006B0003F0312F4800F09D0184AB2FBF3F2144B37
:1006C0005B68C3F3881303FB02F208E0114AB2FB34
:1006D000F3F30F4A5168C1F3881101FB03F20C4B8D
:1006E0005B68C3F3014301335B00B2FBF3F30A4AD7
:1006F000136002E0074A084B1A60054B9B68C3F37E
:100700000313074AD15C044A1368CB401360704757
:10071000003802400024F4000C00002040787D01E5
:10072000102000082DE9F047446887684588017863
:10073000062900F2AD81042F00F2AD810023184696
:10074000A1E145FA03F212F0010F00F09A810529A8
:1007500000F29681DFE811F0060048008A00CC0024
:100760000F015101DFF834E3DEF80020D2F80080F9
:100770005A004FF0030C0CFA02FC6FEA0C0C08EA6A
:100780000C094FEAD40808FA02F849EA0808DEF82A
:100790000090C9F80080DEF80080D8F80490C4F317
:1007A000800808FA03F649EA0606DEF80080C8F871
:1007B0000460DEF80060D6F8088007FA02F648EA1E
:1007C0000606DEF80080C8F80860DEF80060F6680B
:1007D00004F003040CEA060C04FA02F24CEA0202EA
:1007E000DEF80060F2604CE1DFF8B0E2DEF80420F1
:1007F000D2F800805A004FF0030C0CFA02FC6FEAAA
:100800000C0C08EA0C094FEAD40808FA02F849EA85
:100810000808DEF80490C9F80080DEF80480D8F8F3
:100820000490C4F3800808FA03F649EA0606DEF8E5
:100830000480C8F80460DEF80460D6F8088007FA7F
:1008400002F648EA0606DEF80480C8F80860DEF81A
:100850000460F66804F003040CEA060C04FA02F2E1
:100860004CEA0202DEF80460F2600AE1DFF82CE2F2
:10087000DEF80820D2F800805A004FF0030C0CFA82
:1008800002FC6FEA0C0C08EA0C094FEAD40808FADB
:1008900002F849EA0808DEF80890C9F80080DEF896
:1008A0000880D8F80490C4F3800808FA03F649EAEF
:1008B0000606DEF80880C8F80460DEF80860D6F89E
:1008C000088007FA02F648EA0606DEF80880C8F84B
:1008D0000860DEF80860F66804F003040CEA060C11
:1008E00004FA02F24CEA0202DEF80860F260C8E0A4
:1008F000DFF8A8E1DEF80C20D2F8009003EB430209
:100900004FF0030808FA02F86FEA080809EA080A33
:100910004FEAD40C0CFA02F94AEA0909DEF80CA0F5
:10092000CAF80090DEF80C90D9F804900CF0010C95
:100930000CFA03F649EA0606DEF80CC0CCF80460AF
:10094000DEF80C60D6F808C007FA02F64CEA060694
:10095000DEF80CC0CCF80860DEF80C60F66804F035
:10096000030408EA060804FA02F248EA0202DEF882
:100970000C60F26085E0DFF824E1DEF81020D2F8A8
:1009800000909A004FF0030808FA02F86FEA08088E
:1009900009EA080A4FEA141C0CFA02F94AEA0909A2
:1009A000DEF810A0CAF80090DEF81090D9F8049094
:1009B0000CF0010C0CFA03F649EA0606DEF810C04A
:1009C000CCF80460DEF81060D6F808C007FA02F62A
:1009D0004CEA0606DEF810C0CCF80860DEF81060BD
:1009E000F66804F0030408EA060804FA02F248EA8A
:1009F0000202DEF81060F26043E0DFF8A0E0DEF80B
:100A00001420D2F8009003EB83024FF0030808FA99
:100A100002F86FEA080809EA080A4FEA541C0CFABF
:100A200002F94AEA0909DEF814A0CAF80090DEF8D3
:100A30001490D9F804900CF0010C0CFA03F649EA72
:100A40000606DEF814C0CCF80460DEF81460D6F8B0
:100A500008C007FA02F64CEA0606DEF814C0CCF825
:100A60000860DEF81460F66804F0030408EA06087B
:100A700004FA02F248EA0202DEF81460F26000E0D2
:100A800001200133DBB20F2B7FF65BAEBDE8F087B0
:100A90000220BDE8F0870820BDE8F08710000020A4
:100AA000062800D97047052800F28F80DFE800F0A3
:100AB000031A31485F7662B94B4A1068836923EAAA
:100AC000010383611268936943EA01419161002047
:100AD0007047012A7BD1444B1A689369194391618D
:100AE0000020704762B9404A5068836923EA0103D5
:100AF00083615268936943EA014191610020704724
:100B0000012A66D1384B5A689369194391610020D4
:100B1000704762B9344A9068836923EA01038361AC
:100B20009268936943EA0141916100207047012A6C
:100B300051D12D4B9A6893691943916100207047F8
:100B400062B9294AD068836923EA01038361D268C4
:100B5000936943EA0141916100207047012A3CD129
:100B6000214BDA689369194391610020704762B99B
:100B70001D4A1069836923EA01038361126993693D
:100B800043EA0141916100207047012A27D1164BA9
:100B90001A699369194391610020704762B9124A3A
:100BA0005069836923EA010383615269936943EAC7
:100BB0000141916100207047012A12D10A4B5A6904
:100BC000936919439161002070470120704700200C
:100BD00070470020704700207047002070470020B9
:100BE00070470020704700BF1000002030B4002381
:100BF00040E041FA03F414F0010F39D0052837D84A
:100C0000DFE800F0030C151E27301D4C2468246912
:100C100024FA03F505F00105157029E0184C646805
:100C2000246924FA03F505F00105157020E0144C41
:100C3000A468246924FA03F505F00105157017E08E
:100C40000F4CE468246924FA03F505F001051570DA
:100C50000EE00B4C2469246924FA03F505F0010524
:100C6000157005E0064C6469246924FA03F51570D3
:100C70000133DBB20F2BBCD9002030BC704700BF62
:100C80001000002070B50546154C0022E18B207F36
:100C9000FFF706FF0022E1882079FFF701FF00221D
:100CA000618A207CFFF7FCFE00240FE045FA04F285
:100CB0000B4E630019198800304402F00102418D87
:100CC00090F82800FFF7ECFE0134E4B2072CEDD9D0
:100CD000034B0122D98B187FFFF7E2FE70BD00BFE6
:100CE0002800002008B50120FFF7CCFF08BD00BF99
:100CF00070B50546154C0022E18B207FFFF7D0FE32
:100D00000122E1882079FFF7CBFE0022618A207C56
:100D1000FFF7C6FE00240FE045FA04F20B4E630015
:100D200019198800304402F00102418D90F8280022
:100D3000FFF7B6FE0134E4B2072CEDD9034B0122D4
:100D4000D98B187FFFF7ACFE70BD00BF28000020D4
:100D500010B5164C2046FFF7E5FC04F10C00FFF738
:100D6000E1FC04F11800FFF7DDFC04F12400FFF7BB
:100D7000D9FC04F13000FFF7D5FC04F13C00FFF78B
:100D8000D1FC04F14800FFF7CDFC04F15400FFF75B
:100D9000C9FC04F16000FFF7C5FC04F16C00FFF72B
:100DA000C1FC04F17800FFF7BDFC10BD2C00002051
:100DB00008B51D4B1B78052B33D8DFE803F003097A
:100DC000151C232AFFF7C4FF0122174B1A7028E0D5
:100DD000164B1B78142B03D80133144A137020E0F0
:100DE0000222114B1A701CE03820FFF74BFF032240
:100DF0000D4B1A7015E00F20FFF744FF04220A4B39
:100E00001A700EE00120FFF73DFF0522064B1A7015
:100E100007E00620FFF736FF0123054A1370024A58
:100E20001370014B187808BDD8010020D9010020AB
:100E3000DA01002010B530B1012806D100F14001DF
:100E4000C9B2002403E0002401E00524002181F060
:100E50008000FFF717FF204610BD00BF38B50E4CCD
:100E60002478012C12D102250B4C25700B4D2860E3
:100E700029716A71AB710024EC7119461046FFF7B5
:100E8000D9FF0122064B1A70204638BD092C01D02B
:100E9000022038BD042038BDD801002014020020F3
:100EA000DB0100200E4AD3791279934206D1012248
:100EB0000C4B1A7000220C4B1A70704710B50F2B98
:100EC00004D100210120FFF7B5FF10BD044C2268BA
:100ED000D05CFFF70DFFE3790133E37110BD00BF74
:100EE00014020020D8010020DB01002008B50A4BC5
:100EF0001B7813B9FFF75CFF08BD012B0BD1074B23
:100F00001B78012B02D0022B03D008BDFFF7CAFFCC
:100F100008BDFFF7E7FE08BDDA010020DB01002075
:100F200008B5002303220B210148FFF797FF08BDF6
:100F30002020000810B584B0002416E00923029395
:100F40000C49A300181942000A449088ADF8060025
:100F500092788DF8042023445A000A44137A0393AC
:100F600001A8FFF7DFFB0134E4B2002CE6D000203B
:100F700004B010BD2C20000838B5064C82001518AE
:100F80006B002344DA794A4099889878FFF788FD06
:100F9000002038BD2C20000830B583B002AA02F82A
:100FA000011D0A4C81000D186B0023449C882146CA
:100FB0009878FFF71BFE9DF8071081F00101E0B261
:100FC000FFF7DAFF002003B030BD00BF2C2000087F
:100FD00008B501210020FFF7DFFF08BD02285CD81B
:100FE00001281ED010B1022839D058E0304A1368C9
:100FF0009B6823F0030312689360002301E0013330
:101000009BB22B4A1268926812F00C0F03D042F286
:101010000F729342F3D942F20F72934241D80020EB
:101020007047234A13689B6823F0030343F00103CE
:1010300012689360002301E001339BB21C4A1268DE
:101040009268C2F38102012A03D042F20F729342E6
:10105000F2D942F20F72934225D800207047144A09
:1010600013689B6823F0030343F002031268936044
:10107000002301E001339BB20D4A12689268C2F36B
:101080008102022A03D042F20F729342F2D942F255
:101090000F72934209D80020704704207047042043
:1010A000704703207047032070470320704700BF3C
:1010B000B0000020114B1B681B6802281AD80128B9
:1010C0000AD010B102280ED016E043F001030B4AFB
:1010D000126813600920704743F48033074A12688E
:1010E00013600820704743F08073044A126813604D
:1010F0000A2070470420704704207047B000002089
:10110000032800F24381DFE810F004005B00680070
:10111000E1008F4B1B681B6B162900F23981DFE859
:1011200011F0480041003A0033002C00370137012C
:101130002500370137013701370137013701370102
:101140003701370137013701370137011E0017001A
:1011500043F480037E4A126813630020704743F40F
:1011600000137B4A126813630020704743F080032A
:10117000774A126813630020704743F01003744AE3
:10118000126813630020704743F00803704A126826
:1011900013630020704743F004036D4A1268136321
:1011A0000020704743F00203694A1268136300206D
:1011B000704743F00103664A1268136300207047CA
:1011C000634B1B685B6B072940F0E48043F08003AE
:1011D0005F4A12685363002070475D4B1B681B6CAD
:1011E0001C2900F2D980DFE811F06A0063005C007E
:1011F0005500D700D700D700D700D700D700D700B9
:101200004E00D700D70047004000D7003900D70074
:10121000D700D70032002B002400D700D700D7001A
:10122000D7001D0043F08053494A12681364002020
:10123000704743F40003464A126813640020704765
:1012400043F48003424A126813640020704743F459
:1012500000133F4A126813640020704743F40033C0
:101260003B4A126813640020704743F40043384A35
:10127000126813640020704743F48043344A1268B4
:1012800013640020704743F40063314A126813630B
:101290000020704743F008032D4A126813640020B1
:1012A000704743F004032A4A126813640020704711
:1012B00043F00203264A126813640020704743F08B
:1012C0000103234A1268136400207047204B1B68F7
:1012D0005B6C122962D8DFE801F0526161614B4416
:1012E00061613D6161342D261F6118110A0043F4CC
:1012F0008023174A126853640020704743F4003378
:10130000134A126853640020704743F48033104A34
:10131000126853640020704743F480430C4A1268FB
:1013200053640020704743F40053094A1268536421
:101330000020704743F48053054A1268536400202C
:10134000704743F40063024A1268536400207047F8
:10135000B000002043F48073114A126853630020E8
:10136000704743F020030E4A126853640020704710
:1013700043F010030A4A126853640020704743F098
:101380000103074A12685364002070470020704729
:101390002A2070472B2070472C2070472D20704743
:1013A000B0000020064B1A6842F004021A601A6866
:1013B0001A601A6822F002021A600020704700BF0B
:1013C00010E000E0034A136843F0010313600020BB
:1013D000704700BF10E000E0034A136843F00203C7
:1013E00013600020704700BF10E000E018B1034A0E
:1013F0001060002070470220704700BFDC01002011
:1014000010B403283BD810B101281CD039E011B129
:1014100001290CD037E01E4B1968002018601968AC
:101420004FF47A5404FB02F20A431A602EE0184B80
:1014300019680020186019684FF4FA6404FB02F27E
:101440000A431A6022E011B101290CD01DE0104BB3
:10145000196800201860196846F2A81404FB02F20B
:101460000A431A6012E00A4B1968002018601968D4
:1014700040F6354404FB02F20A431A6006E00120FC
:1014800004E0002002E0002000E0002010BC7047D3
:1014900014E000E008B5024B1B6803B1984708BD93
:1014A000DC010020034B1B6813B90122014B1A60B9
:1014B000704700BFE001002038B5002421E0254638
:1014C00004EB44029300104AD358D968B9B104EB35
:1014D000440293000C4A13445B6843B988470A49A5
:1014E000630023449A008B188A5852685A60064950
:1014F0006A00501983000B445A68023A5A6001345A
:10150000E4B2022CDBD938BDE401002038B5FFF786
:1015100049FF022200210846FFF772FFFFF75CFF38
:101520000A48FFF763FF00230CE0094800EB0310B3
:10153000084C5A00D518A900605040682144486002
:101540000133DBB2022BF0D9002038BDA51400080E
:10155000B4000020E401002008B5FFF733FF054B7D
:101560001B68002BFBD0FFF7A7FF0022014B1A607E
:10157000F5E700BFE001002008B50020FFF79AFD65
:101580000020FFF72BFD00210846FFF7B9FD0121E0
:101590000020FFF7B5FD02210020FFF7B1FDFFF7A6
:1015A000C9FCFFF7B3FFFFF7D7FFFEE7014B186851
:1015B000704700BF4401002030B5141E05469BB0A3
:1015C000184604DA8B232B604FF0FF301DE04FF4F8
:1015D0000273ADF80C3014BF04F1FF3323460293BD
:1015E00005934FF6FF7300910491ADF80E3002465B
:1015F0001E9B6946284600F073F8431CBCBF8B2332
:101600002B6014B1009B00221A701BB030BD00008B
:1016100007B5009313460A46014603480068FFF7E2
:10162000CBFF03B05DF804FB440100202DE9F04737
:101630008E689E4282460C46914698463ED88A89DC
:1016400012F4906F3AD0256809696F1A6569022310
:1016500005EB450595FBF3F57B1C43449D4238BFE4
:101660001D4653050FD5294600F08EFB064698B15E
:101670003A46216900F014FBA38923F4906343F0F8
:101680008003A38113E02A4600F0DCFB064670B914
:101690002169504600F02AFB0C23CAF80030A389C8
:1016A00043F04003A3814FF0FF30BDE8F08726618F
:1016B00065613E44ED1B2660A5604646464528BF51
:1016C000464632464946206800F0F5FAA3689B1B5F
:1016D000A36023681E4426600020BDE8F087000058
:1016E0002DE9F04F9DB0804603938B891C060D4673
:1016F00016460DD50B695BB9402100F045FB28600B
:10170000286118B90C23C8F80030CDE040236B6184
:101710000023099320238DF82930DFF89CB1302372
:101720008DF82A3037463C4614F8013B1BB9B7EB1D
:10173000060910D003E0252BF9D02746F3E74B46E6
:10174000324629464046FFF771FF013000F0A7807E
:10175000099B4B4409933B78002B00F0A0800023A9
:101760004FF0FF3204930793059206938DF85330A0
:101770001A930126052221784E4800F041FA671C91
:10178000049B38B14B4A801A06FA00F018430490C3
:101790003C46EFE7D90644BF20228DF853201A07B4
:1017A00044BF2B228DF8532022782A2A03D0079A8F
:1017B00000210A200BE0039A111D12680391002AF0
:1017C00010DA524243F00200079204900BE02746E1
:1017D00001343B78303B092B03D800FB0232012156
:1017E000F5E701B107923B782E2B1ED17B782A2B8F
:1017F0000AD1039B1A1D1B680392002BB8BF4FF040
:10180000FF330237059310E000230593781C194637
:101810000A24074601303A78303A092A03D804FBF3
:1018200001210123F5E703B105910322397822480C
:1018300000F0E6F940B14023CBEB000003FA00F0E2
:10184000049B18430490013739781C488DF8281000
:1018500006227E1C00F0D4F988B1194B33B9039BE2
:10186000073323F007030833039314E003AB00931B
:101870002A46144B04A94046AFF3008007E003ABAF
:1018800000932A460F4B04A9404600F093F8B0F1AC
:10189000FF3F824603D0099B5344099342E7AB893B
:1018A0005B0601D4099801E04FF0FF301DB0BDE8A0
:1018B000F08F00BF362000083C20000840200008C0
:1018C000000000002D1600082DE9F04791461F4644
:1018D0000A698B68DDF820809342B8BF1346C9F8C7
:1018E000003091F8432006460C4612B10133C9F886
:1018F00000302368990642BFD9F800300233C9F896
:101900000030256815F0060510D104F1190A07E02A
:101910000123524639463046C04701301AD00135BE
:10192000E368D9F800209B1A9D42F1DB94F843301C
:101930002268003318BF012392060FD5E1185A1C04
:10194000302081F84300224494F8451082F8431077
:10195000023303E04FF0FF30BDE8F08704F14302AB
:1019600039463046C0470130F4D02268D9F80050DB
:10197000E36802F00602042A08BF5D1B2269A3681F
:101980000CBF25EAE57500259342C4BF9B1AED18EC
:101990004FF000091A344D4509D00123224639463B
:1019A0003046C0470130D5D009F10109F3E70020E6
:1019B000BDE8F0872DE9F04317460A7E85B06E2A10
:1019C000984606460C460C9B01F1430E00F0AE8093
:1019D00011D8632A22D009D8002A00F0BB80582AE7
:1019E00040F0CA8081F84520834955E0642A1ED022
:1019F000692A1CD0C0E0732A00F0B08009D86F2A91
:101A00002ED0702A40F0B8800A6842F020020A60A6
:101A10003EE0752A24D0782A3AD0ADE01A6801F168
:101A20004205111D1960136884F84230A8E021684E
:101A30001A6811F0800F02D0111D196008E011F032
:101A4000400F02F10401196002D0B2F9003000E049
:101A50001368002B3CDA2D225B4284F8432037E0E8
:101A600021681A6811F0800F02D0111D196007E07B
:101A700011F0400F02F10401196001D0138800E059
:101A80001368227E5C496F2A14BF0A2208221BE0D9
:101A900078225A4984F845202268186812F0800F8D
:101AA00000F104051D6003D1550601D5038800E04F
:101AB0000368D00744BF42F0200222601BB92268AD
:101AC00022F0200222601022002084F8430001E06E
:101AD00049490A226568A560002D08DB206820F0CE
:101AE000040020602BB9002D7DD175460CE0002B41
:101AF00079D07546B3FBF2F002FB1033CB5C05F8EE
:101B0000013D03460028F5D1082A0BD12368DA07E6
:101B100008D5236962689A42DEBF302305F8013C8C
:101B200005F1FF35C5EB0E0323612EE008681A6846
:101B3000496910F0800F03D0101D1860136808E089
:101B400010F0400F02F104001860136801D01980F2
:101B500000E0196000232361754616E01A68111D24
:101B60001960156862680021284600F049F808B13C
:101B7000401B6060636804E004F1420584F8422081
:101B800001232361002384F84330CDF800803B46D5
:101B900003AA21463046FFF797FE013002D14FF0ED
:101BA000FF3026E023692A4639463046C0470130D7
:101BB000F5D023689B0710D5002504F1190907E02B
:101BC00001234A4639463046C0470130E7D0013547
:101BD000E368039A9B1A9D42F2DBE068039B9842FC
:101BE000B8BF184605E00B7884F8423004F142058E
:101BF0008AE705B0BDE8F0834720000858200008B8
:101C000001F0FF01102A2BDB10F0070F08D010F8AD
:101C1000013B013A8B422DD010F0070F42B3F6D1B1
:101C2000F0B441EA012141EA014122F007047FF0CA
:101C300000070023F0E80256083C85EA010586EA21
:101C4000010685FA47F5A3FA87F586FA47F6A5FA5D
:101C500087F68EB9EED1F0BC01F0FF0102F0070269
:101C600032B110F8013B013A83EA010313B1F8D114
:101C70000020704701387047002D06BF35460338F5
:101C8000073815F0010F07D1013015F4807F02BF2E
:101C9000013015F4C03F0130F0BC0138704700BF7F
:101CA00010B5431E0A44914204D011F8014B03F8C9
:101CB000014FF8E710BD884210B501EB020301D8CF
:101CC000421E0BE09842FBD28118D21AD34204D0B4
:101CD00013F8014D01F8014DF8E710BD994204D009
:101CE00011F8014B02F8014FF8E710BD38B5054671
:101CF000002946D051F8043C0C1F002BB8BFE41853
:101D000000F0D6F81F4A1368114613B963601460D7
:101D100032E0A3420ED92268A018834204BF18689B
:101D20005B68636004BF121822600C6024E0A2426A
:101D300003D813465A68002AF9D118681918A14225
:101D40000BD12168014458188242196014D11068DF
:101D500052685A60014419600EE002D90C232B60CE
:101D60000AE021686018824204BF1068526862600D
:101D700004BF091821605C602846BDE8384000F0C7
:101D800098B838BD0C02002070B5CD1C25F00305B5
:101D900008350C2D38BF0C25002D064601DBA94265
:101DA00002D90C23336046E000F082F8234B1C6814
:101DB0001A462146A1B10B685B1B0ED40B2B03D92D
:101DC0000B60CC18CD501EE08C420DBF63684B6891
:101DD0006360136018BF0C4615E00C464968E9E7DC
:101DE000174C23681BB9304600F052F82060294692
:101DF000304600F04DF8431C18D0C41C24F00304F6
:101E0000A0420DD12560304600F053F804F10B00DC
:101E1000231D20F00700C31A0ED05A42E25070BDB5
:101E2000211A304600F034F80130EBD10C23336036
:101E3000304600F03EF8002070BD00BF0C020020CC
:101E400008020020F8B5074615460E4621B911468E
:101E5000BDE8F840FFF798BF1AB9FFF747FF2846DB
:101E6000F8BD00F027F885420ED929463846FFF71D
:101E70008BFF044650B131462A46FFF711FF314629
:101E80003846FFF733FF01E03046F8BD2046F8BD85
:101E900038B5064C0023054608462360FEF7C2FA13
:101EA000431C02D1236803B12B6038BD100200200F
:101EB0007047704751F8040C0028BEBF091851F84C
:101EC000043CC01804387047537461636B20667219
:101ED000616D653A0A000000205230203D20202527
:101EE0003038580A00000000205231203D202025C3
:101EF0003038580A00000000205232203D202025B2
:101F00003038580A00000000205233203D202025A0
:101F10003038580A0000000020523132203D202580
:101F20003038580A00000000204C52203D20202567
:101F30003038580A00000000205043203D20202562
:101F40003038580A0000000020505352203D202510
:101F50003038580A000000004653522F4641523A8A
:101F60000A0000002043465352203D2020253038EF
:101F7000580A00002048465352203D202025303882
:101F8000580A00002044465352203D202025303876
:101F9000580A00002041465352203D202025303869
:101FA000580A0000204D4D464152203D2025303832
:101FB000580A00002042464152203D20202530385A
:101FC000580A00004D6973630A000000204C522F2C
:101FD0004558435F52455455524E3D2025303858A0
:101FE0000A0000005B486172644661756C745D0AAA
:101FF000000000005B4275734661756C745D0A00F9
:102000005B55736167654661756C745D0A0000001D
:102010000000000000000000010203040607080998
:10202000446F6161204D616865720000000001002D
:10203000000401000300232D302B2000686C4C00AD
:1020400065666745464700303132333435363738B8
:102050003941424344454600303132333435363716
:09206000383961626364656600B1
:10206C007856341254010020000000000024F400C3
:10207C00000002400004024000080240000C024034
:10208C0000100240001C0240010000000100010091
:10209C00080000000200000001000200080000001F
:1020AC000200000001000400080000000200000013
:1020BC000000010008000000020000000000020007
:1020CC0008000000020000000000040008000000EE
:1020DC0002000000000008000800000002000000E0
:1020EC0000001000080000000200000000002000AA
:1020FC000800000002000000000040000800000082
:10210C000200000000008000080000000200000037
:10211C000038024000000000F40100000100000043
:10212C00D10F0008000000000200000002000000B7
:10213C00ED0E0008000000002C0100000300000060
:10214C00210F00080000000000000000000000004B
:10215C000000000000000000000000000000000073
:10216C000000000000000000000000000000000063
:10217C000000000000000000000000000000000053
:10218C000000000000000000000000000000000043
:10219C000000000000000000000000000000000033
:0C21AC0000000000E4000020325476988F
:040000050800019559
:00000001FF
