:020000040800F2
:1000000000000120C5020008CD020008D10200084E
:1000100045030008490300089103000800000000A0
:10002000000000000000000000000000D9030008EC
:10003000DD03000800000000E1030008E5030008FC
:10004000F5030008F5030008F5030008F5030008B0
:10005000F5030008F5030008F5030008F5030008A0
:10006000F5030008F5030008F5030008F503000890
:10007000F5030008F5030008F5030008F503000880
:10008000F5030008F5030008F50300080000000070
:10009000000000000000000000000000F503000860
:1000A000F5030008F5030008F5030008F503000850
:1000B000F5030008F5030008F5030008F503000840
:1000C000F5030008F5030008F5030008F503000830
:1000D000F5030008F5030008F50300080000000020
:1000E000F5030008F5030008F50300080000000010
:1000F000000000000000000000000000F503000800
:1001000000000000F5030008F5030008F5030008EF
:1001100000000000000000000000000000000000DF
:10012000F5030008F5030008F5030008F5030008CF
:10013000F5030008000000000000000000000000BF
:10014000000000000000000000000000F5030008AF
:10015000F5030008F5030008F5030008F50300089F
:10016000F5030008F503000800000000000000008F
:10017000000000000000000000000000000000007F
:1001800000000000F503000800000000000000006F
:10019000F503000800B583B000F0BCF9384B394ACC
:1001A0001360394A136039490CE00A684B6801F161
:1001B0000C04886803E01168196004330432984223
:1001C000F9D82146324B9942EFD32E4B1A68314B66
:1001D0009A4204D12C4B1A682F4B9A4200D0FEE76A
:1001E000274B2E4A13602E4A13602E4B0AE0194605
:1001F00051F8082B5B6802E00020106004329A423C
:10020000FAD30B46284A9342F1D3244B1B6813B907
:10021000234B1B6803B1FEE700F088F9694601A88B
:1002200000F022F9214C224B1C1BA410002504E0F5
:100230001E4B53F8253098470135AC42F8DC1D4C75
:100240001D4B1C1BA410002504E01A4B53F825304D
:1002500098470135AC42F8DC0099019800F062FA49
:100260000546164C164B1C1BA41004E0013C134B16
:1002700053F824309847002CF8DC284600F0D0F8DA
:10028000BABADECA0000002090000020F80300087F
:1002900010040008785634123254769894000020E6
:1002A0002C0100201004000820040008200400088D
:1002B000200400082004000820040008200400088E
:1002C0002004000808B5FFF765FF00BF00BEFEE789
:1002D0001EF0040F0CBFEFF30880EFF309807146A6
:1002E000414A10472DE9F04182B004468846134B3D
:1002F0005E6B9F6B9D6A1B6B13F0020F0DD00F4B53
:10030000DB6A002B09DA4BF6AB6100F08BF920B108
:100310004FF00042094BDA620CE0094800F0ACF8FB
:10032000CDF800803B4632462946204600F002F9CF
:1003300000BEFEE702B0BDE8F08100BF00ED00E0C6
:10034000641A000800BEFEE71EF0040F0CBFEFF3B6
:100350000880EFF309807146244A10472DE9F041E7
:1003600082B004468846084B5E6B9F6B9D6A0748C7
:1003700000F082F8CDF800803B4632462946204600
:1003800000F0D8F800BEFEE700ED00E0741A0008A7
:100390001EF0040F0CBFEFF30880EFF309807146E5
:1003A000134A10472DE9F04182B004468846084BB5
:1003B0005E6B9F6B9D6A074800F05EF8CDF8008089
:1003C0003B4632462946204600F0B4F800BEFEE720
:1003D00000ED00E0801A000800BEFEE700BEFEE768
:1003E00000BEFEE770470000E50200085D0300085C
:0803F000A503000800BEFEE7B2
:1003F800E01A00080000002094000020E01A00081D
:1004080000000010000000109400002030010020BF
:080418000000001000000010BC
:10042000FEE700BF08B50D4B1B6813B90C4A0B4B18
:100430001A600A4B1A68C31C23F0030313440949CA
:100440008B4206D900F0ECFD0C2303604FF0FF3027
:1004500008BD02490B60104608BD00BF980000208F
:100460003001002000FC002001230360014B0B60E1
:10047000704700BF040000200FB400B583B004AB88
:1004800053F8042B01938021064800F0FBFD00285F
:1004900003DD0146034800F039F803B05DF804EBD2
:1004A00004B07047A00000202DE9F04385B0044659
:1004B0000F46435613BB042528462146ABBE0446CF
:1004C0001FE03546102E28BF1025002306E014F942
:1004D000011B04AA1A4402F8101C0133AB42F6D3E4
:1004E00004AA1344002203F8102CE9464FF0040834
:1004F00040464946ABBE8046761B00E00E46002EC5
:10050000DFD1384605B0BDE8F08300BF08B5FFF77E
:10051000CBFF08BD08B500F095F8024B024A9A607F
:1005200008BD00BF00ED00E00000000808B500F0C5
:10053000A9F808BDF8B504460D4617461E462648DC
:10054000FFF79AFF21682548FFF796FF6168244866
:10055000FFF792FFA1682348FFF78EFFE16822486A
:10056000FFF78AFF21692148FFF786FF616920486C
:10057000FFF782FFA1691F48FFF77EFFE1691E4870
:10058000FFF77AFF1D48FFF777FF29461C48FFF762
:1005900073FF1C4CE16A1C48FFF76EFF216B1B4880
:1005A000FFF76AFFE16B1A48FFF766FF15F0800F4F
:1005B00003D039461748FFF75FFF15F4004F03D00B
:1005C00031461548FFF758FF1448FFF755FF0699C5
:1005D0001348FFF751FFF8BD4819000858190008E3
:1005E0006819000878190008881900089819000887
:1005F000A8190008B8190008C8190008D819000877
:10060000E419000800ED00E0F4190008041A0008DD
:10061000141A0008241A0008341A0008441A0008A2
:100620004C1A000883691A888A4207D10268033A83
:10063000012A05D8023383610120704700207047EA
:10064000002070470C4B1A6842F001021A6000212A
:1006500099601A6822F0847222F480321A60074A84
:100660005A601A6822F480221A60D9604FF0006242
:10067000034B9A60704700BF0038024010300024DE
:1006800000ED00E0224B9B6803F00C03042B07D025
:10069000082B09D0002B2DD11E4A1F4B1A602CE0CD
:1006A0001E4A1D4B1A6028E0194B5A685B6803F01C
:1006B0003F0312F4800F09D0184AB2FBF3F2144B37
:1006C0005B68C3F3881303FB02F208E0114AB2FB34
:1006D000F3F30F4A5168C1F3881101FB03F20C4B8D
:1006E0005B68C3F3014301335B00B2FBF3F30A4AD7
:1006F000136002E0074A084B1A60054B9B68C3F37E
:100700000313074AD15C044A1368CB401360704757
:10071000003802400024F4000C00002040787D01E5
:10072000901A000800B583B00021084600F060F878
:1007300000238DF8073000F0ADF900F015F80DF149
:1007400007020121002000F02BF89DF8073023B9A3
:100750000021084600F0BCF9F1E7012BEFD101219F
:10076000002000F0B5F9EAE710B584B0002410E0ED
:100770000A4A02EB8403D978029112F824208DF8FA
:1007800004205B78ADF8063001A800F0B1F901341F
:10079000E4B2002CECD0002004B010BDA01A000878
:1007A000F0B583B007460E46019200252C460FE0B7
:1007B0000E4B03EB860101AA497813F8270000F0DD
:1007C000E5FB019B1B780BB90135EDB20134E4B2B6
:1007D000052CEDD9022D03D90022019B1A7002E0ED
:1007E0000122019B1A70002003B0F0BDA01A00087E
:1007F000032800F24381DFE810F004005B0068008A
:10080000E1008F4B1B681B6B162900F23981DFE872
:1008100011F0480041003A0033002C003701370145
:10082000250037013701370137013701370137011B
:100830003701370137013701370137011E00170033
:1008400043F480037E4A126813630020704743F428
:1008500000137B4A126813630020704743F0800343
:10086000774A126813630020704743F01003744AFC
:10087000126813630020704743F00803704A12683F
:1008800013630020704743F004036D4A126813633A
:100890000020704743F00203694A12681363002086
:1008A000704743F00103664A1268136300207047E3
:1008B000634B1B685B6B072940F0E48043F08003C7
:1008C0005F4A12685363002070475D4B1B681B6CC6
:1008D0001C2900F2D980DFE811F06A0063005C0097
:1008E0005500D700D700D700D700D700D700D700D2
:1008F0004E00D700D70047004000D7003900D7008E
:10090000D700D70032002B002400D700D700D70033
:10091000D7001D0043F08053494A12681364002039
:10092000704743F40003464A12681364002070477E
:1009300043F48003424A126813640020704743F472
:1009400000133F4A126813640020704743F40033D9
:100950003B4A126813640020704743F40043384A4E
:10096000126813640020704743F48043344A1268CD
:1009700013640020704743F40063314A1268136324
:100980000020704743F008032D4A126813640020CA
:10099000704743F004032A4A12681364002070472A
:1009A00043F00203264A126813640020704743F0A4
:1009B0000103234A1268136400207047204B1B6810
:1009C0005B6C122962D8DFE801F0526161614B442F
:1009D00061613D6161342D261F6118110A0043F4E5
:1009E0008023174A126853640020704743F4003391
:1009F000134A126853640020704743F48033104A4E
:100A0000126853640020704743F480430C4A126814
:100A100053640020704743F40053094A126853643A
:100A20000020704743F48053054A12685364002045
:100A3000704743F40063024A126853640020704711
:100A40001000002043F48073114A126853630020A1
:100A5000704743F020030E4A126853640020704729
:100A600043F010030A4A126853640020704743F0B1
:100A70000103074A12685364002070470020704742
:100A80002A2070472B2070472C2070472D2070475C
:100A90001000002010B584B0002412E00923029356
:100AA000C4EBC403094A1344DA78ADF806209A78F7
:100AB0008DF804209B79039301A800F019F8013404
:100AC000E4B2002CEAD0002004B010BDA41A000843
:100AD00008B5C0EBC000054B184402794A40C17804
:100AE000807800F0C9F9002008BD00BFA41A0008F2
:100AF0002DE9F0474468856841880278062A00F2AB
:100B0000B081102900F2B081042D00F2B0810023E1
:100B10001846A1E141FA03F616F0010F00F09A81A0
:100B2000052A00F29681DFE812F0060048008A00EC
:100B3000CC000F015101DFF83CE3DEF80060D6F88D
:100B400000805E004FF0030C0CFA06FC6FEA0C0C00
:100B500008EA0C094FEAD40808FA06F849EA080836
:100B6000DEF80090C9F80080DEF80080D8F8049024
:100B7000C4F3800808FA03F749EA0707DEF80080A3
:100B8000C8F80470DEF80070D7F8088005FA06F798
:100B900048EA0707DEF80080C8F80870DEF8007041
:100BA000FF6804F003040CEA070C04FA06F64CEAAA
:100BB0000606DEF80070FE604CE1DFF8B8E2DEF811
:100BC0000460D6F800805E004FF0030C0CFA06FCBF
:100BD0006FEA0C0C08EA0C094FEAD40808FA06F888
:100BE00049EA0808DEF80490C9F80080DEF80480BD
:100BF000D8F80490C4F3800808FA03F749EA070715
:100C0000DEF80480C8F80470DEF80470D7F80880B5
:100C100005FA06F748EA0707DEF80480C8F8087006
:100C2000DEF80470FF6804F003040CEA070C04FA11
:100C300006F64CEA0606DEF80470FE600AE1DFF80C
:100C400034E2DEF80860D6F800805E004FF0030C56
:100C50000CFA06FC6FEA0C0C08EA0C094FEAD408FF
:100C600008FA06F849EA0808DEF80890C9F8008092
:100C7000DEF80880D8F80490C4F3800808FA03F777
:100C800049EA0707DEF80880C8F80470DEF8087043
:100C9000D7F8088005FA06F748EA0707DEF8088063
:100CA000C8F80870DEF80870FF6804F003040CEA66
:100CB000070C04FA06F64CEA0606DEF80870FE6039
:100CC000C8E0DFF8B0E1DEF80C60D6F8009003EB86
:100CD00043064FF0030808FA06F86FEA080809EA25
:100CE000080A4FEAD40C0CFA06F94AEA0909DEF8B8
:100CF0000CA0CAF80090DEF80C90D9F804900CF023
:100D0000010C0CFA03F749EA0707DEF80CC0CCF82F
:100D10000470DEF80C70D7F808C005FA06F74CEA44
:100D20000707DEF80CC0CCF80870DEF80C70FF681E
:100D300004F0030408EA070804FA06F648EA06067F
:100D4000DEF80C70FE6085E0DFF828E1DEF8106068
:100D5000D6F800909E004FF0030808FA06F86FEAF4
:100D6000080809EA080A4FEA141C0CFA06F94AEACC
:100D70000909DEF810A0CAF80090DEF81090D9F842
:100D800004900CF0010C0CFA03F749EA0707DEF8AF
:100D900010C0CCF80470DEF81070D7F808C005FA5F
:100DA00006F74CEA0707DEF810C0CCF80870DEF84A
:100DB0001070FF6804F0030408EA070804FA06F656
:100DC00048EA0606DEF81070FE6043E0DFF8A4E0B3
:100DD000DEF81460D6F8009003EB83064FF00308AA
:100DE00008FA06F86FEA080809EA080A4FEA541CEC
:100DF0000CFA06F94AEA0909DEF814A0CAF80090CC
:100E0000DEF81490D9F804900CF0010C0CFA03F7FA
:100E100049EA0707DEF814C0CCF80470DEF8147055
:100E2000D7F808C005FA06F74CEA0707DEF814C041
:100E3000CCF80870DEF81470FF6804F0030408EAC8
:100E4000070804FA06F648EA0606DEF81470FE60A3
:100E500000E001200133DBB20F2B7FF65BAEBDE873
:100E6000F0870220BDE8F0870320BDE8F087082066
:100E7000BDE8F08714000020062800F284801029C5
:100E800000F28180052870D8DFE800F003152739CB
:100E90004B5D3AB93C4B1A68936910311943916123
:100EA00000207047012A62D1374B1A6893691943B1
:100EB0009161002070473AB9334B5A6893691031F9
:100EC0001943916100207047012A52D12E4B5A6874
:100ED000936919439161002070473AB92A4B9A6887
:100EE000936910311943916100207047012A42D162
:100EF000254B9A68936919439161002070473AB96C
:100F0000214BDA68936910311943916100207047D1
:100F1000012A32D11C4BDA68936919439161002090
:100F200070473AB9184B1A699369103119439161A6
:100F300000207047012A22D1134B1A699369194383
:100F40009161002070473AB90F4B5A69936910318B
:100F50001943916100207047012A12D10A4B5A6946
:100F60009369194391610020704701207047002068
:100F70007047002070470020704700207047002015
:100F800070470020704770471400002006283ED8A4
:100F900010293ED805283ED8DFE800F0030C151EC6
:100FA00027301E4B1B681B69CB4003F001031370F5
:100FB00000207047194B5B681B69CB4003F00103AD
:100FC000137000207047154B9B681B69CB4003F0E2
:100FD0000103137000207047104BDB681B69CB4086
:100FE00003F001031370002070470C4B1B691B6951
:100FF000CB4003F00103137000207047074B5B697F
:101000001B69CB4003F001031370002070470220DE
:101010007047032070470120704700BF1400002074
:10102000014B1868704700BF8C00002030B5141EBB
:1010300005469BB0184604DA8B232B604FF0FF3037
:101040001DE04FF40273ADF80C3014BF04F1FF3310
:101050002346029305934FF6FF7300910491ADF878
:101060000E3002461E9B6946284600F073F8431C6A
:10107000BCBF8B232B6014B1009B00221A701BB0E5
:1010800030BD000007B5009313460A4601460348E9
:101090000068FFF7CBFF03B05DF804FB8C00002075
:1010A0002DE9F0478E689E4282460C46914698464E
:1010B0003ED88A8912F4906F3AD0256809696F1A70
:1010C0006569022305EB450595FBF3F57B1C43445D
:1010D0009D4238BF1D4653050FD5294600F094FBAD
:1010E000064698B13A46216900F01AFBA38923F419
:1010F000906343F08003A38113E02A4600F0E2FBF3
:10110000064670B92169504600F030FB0C23CAF83E
:101110000030A38943F04003A3814FF0FF30BDE8C6
:10112000F087266165613E44ED1B2660A56046465A
:10113000464528BF464632464946206800F0FBFA3D
:10114000A3689B1BA36023681E4426600020BDE8A3
:10115000F08700002DE9F04F9DB0804603938B8906
:101160001C060D4616460DD50B695BB9402100F0F3
:101170004BFB2860286118B90C23C8F80030CDE07B
:1011800040236B610023099320238DF82930DFF879
:101190009CB130238DF82A3037463C4614F8013B89
:1011A0001BB9B7EB060910D003E0252BF9D0274671
:1011B000F3E74B46324629464046FFF771FF0130C0
:1011C00000F0A780099B4B4409933B78002B00F06B
:1011D000A08000234FF0FF320493079305920693FB
:1011E0008DF853301A930126052221784E4800F0DD
:1011F00047FA671C049B38B14B4A801A06FA00F084
:10120000184304903C46EFE7D90644BF20228DF8EE
:1012100053201A0744BF2B228DF8532022782A2A04
:1012200003D0079A00210A200BE0039A111D1268CF
:101230000391002A10DA524243F002000792049010
:101240000BE0274601343B78303B092B03D800FBE9
:1012500002320121F5E701B107923B782E2B1ED116
:101260007B782A2B0AD1039B1A1D1B680392002B43
:10127000B8BF4FF0FF330237059310E0002305930A
:10128000781C19460A24074601303A78303A092A70
:1012900003D804FB01210123F5E703B105910322E3
:1012A0003978224800F0ECF940B14023CBEB000044
:1012B00003FA00F0049B18430490013739781C4866
:1012C0008DF8281006227E1C00F0DAF988B1194B3F
:1012D00033B9039B073323F007030833039314E068
:1012E00003AB00932A46144B04A94046AFF3008099
:1012F00007E003AB00932A460F4B04A9404600F0D9
:1013000093F8B0F1FF3F824603D0099B5344099301
:1013100042E7AB895B0601D4099801E04FF0FF304A
:101320001DB0BDE8F08F00BFAB1A0008B11A00086D
:10133000B51A000800000000A11000082DE9F047D0
:1013400091461F460A698B68DDF820809342B8BF3A
:101350001346C9F8003091F8432006460C4612B1F6
:101360000133C9F800302368990642BFD9F800302C
:101370000233C9F80030256815F0060510D104F1D4
:10138000190A07E00123524639463046C04701306A
:101390001AD00135E368D9F800209B1A9D42F1DB91
:1013A00094F843302268003318BF012392060FD50A
:1013B000E1185A1C302081F84300224494F845106B
:1013C00082F84310023303E04FF0FF30BDE8F087AE
:1013D00004F1430239463046C0470130F4D0226858
:1013E000D9F80050E36802F00602042A08BF5D1B2A
:1013F0002269A3680CBF25EAE57500259342C4BFA6
:101400009B1AED184FF000091A344D4509D00123FD
:10141000224639463046C0470130D5D009F101098E
:10142000F3E70020BDE8F0872DE9F04317460A7E78
:1014300085B06E2A984606460C460C9B01F1430E79
:1014400000F0AE8011D8632A22D009D8002A00F01B
:10145000BB80582A40F0CA8081F84520834955E076
:10146000642A1ED0692A1CD0C0E0732A00F0B08024
:1014700009D86F2A2ED0702A40F0B8800A6842F04E
:1014800020020A603EE0752A24D0782A3AD0ADE0E6
:101490001A6801F14205111D1960136884F8423081
:1014A000A8E021681A6811F0800F02D0111D1960A0
:1014B00008E011F0400F02F10401196002D0B2F906
:1014C000003000E01368002B3CDA2D225B4284F8E8
:1014D000432037E021681A6811F0800F02D0111DF7
:1014E000196007E011F0400F02F10401196001D00A
:1014F000138800E01368227E5C496F2A14BF0A2219
:1015000008221BE078225A4984F84520226818688E
:1015100012F0800F00F104051D6003D1550601D5BE
:10152000038800E00368D00744BF42F02002226035
:101530001BB9226822F0200222601022002084F8C9
:10154000430001E049490A226568A560002D08DBD7
:10155000206820F0040020602BB9002D7DD1754655
:101560000CE0002B79D07546B3FBF2F002FB103390
:10157000CB5C05F8013D03460028F5D1082A0BD1C4
:101580002368DA0708D5236962689A42DEBF3023F0
:1015900005F8013C05F1FF35C5EB0E0323612EE094
:1015A00008681A68496910F0800F03D0101D186090
:1015B000136808E010F0400F02F10400186013688F
:1015C00001D0198000E0196000232361754616E000
:1015D0001A68111D1960156862680021284600F01C
:1015E0004FF808B1401B6060636804E004F14205F5
:1015F00084F8422001232361002384F84330CDF88E
:1016000000803B4603AA21463046FFF797FE013093
:1016100002D14FF0FF3026E023692A463946304692
:10162000C0470130F5D023689B0710D5002504F191
:10163000190907E001234A4639463046C0470130C0
:10164000E7D00135E368039A9B1A9D42F2DBE0681C
:10165000039B9842B8BF184605E00B7884F84230E7
:1016600004F142058AE705B0BDE8F083BC1A000822
:10167000CD1A00080000000000000000000000007B
:1016800001F0FF01102A2BDB10F0070F08D010F833
:10169000013B013A8B422DD010F0070F42B3F6D137
:1016A000F0B441EA012141EA014122F007047FF050
:1016B00000070023F0E80256083C85EA010586EAA7
:1016C000010685FA47F5A3FA87F586FA47F6A5FAE3
:1016D00087F68EB9EED1F0BC01F0FF0102F00702EF
:1016E00032B110F8013B013A83EA010313B1F8D19A
:1016F0000020704701387047002D06BF354603387B
:10170000073815F0010F07D1013015F4807F02BFB3
:10171000013015F4C03F0130F0BC0138704700BF04
:1017200010B5431E0A44914204D011F8014B03F84E
:10173000014FF8E710BD884210B501EB020301D854
:10174000421E0BE09842FBD28118D21AD34204D039
:1017500013F8014D01F8014DF8E710BD994204D08E
:1017600011F8014B02F8014FF8E710BD38B50546F6
:10177000002946D051F8043C0C1F002BB8BFE418D8
:1017800000F0D6F81F4A1368114613B9636014605D
:1017900032E0A3420ED92268A018834204BF186821
:1017A0005B68636004BF121822600C6024E0A242F0
:1017B00003D813465A68002AF9D118681918A142AB
:1017C0000BD12168014458188242196014D1106865
:1017D00052685A60014419600EE002D90C232B6054
:1017E0000AE021686018824204BF10685268626093
:1017F00004BF091821605C602846BDE8384000F04D
:1018000098B838BD2401002070B5CD1C25F0030523
:1018100008350C2D38BF0C25002D064601DBA942EA
:1018200002D90C23336046E000F082F8234B1C6899
:101830001A462146A1B10B685B1B0ED40B2B03D9B2
:101840000B60CC18CD501EE08C420DBF63684B6816
:101850006360136018BF0C4615E00C464968E9E761
:10186000174C23681BB9304600F052F82060294617
:10187000304600F04DF8431C18D0C41C24F003047B
:10188000A0420DD12560304600F053F804F10B0062
:10189000231D20F00700C31A0ED05A42E25070BD3B
:1018A000211A304600F034F80130EBD10C233360BC
:1018B000304600F03EF8002070BD00BF240100203B
:1018C00020010020F8B5074615460E4621B91146FD
:1018D000BDE8F840FFF798BF1AB9FFF747FF284661
:1018E000F8BD00F027F885420ED929463846FFF7A3
:1018F0008BFF044650B131462A46FFF711FF3146AF
:101900003846FFF733FF01E03046F8BD2046F8BD0A
:1019100038B5064C0023054608462360FEF782FDD5
:10192000431C02D1236803B12B6038BD280100207D
:101930007047704751F8040C0028BEBF091851F8D1
:10194000043CC01804387047537461636B2066729E
:10195000616D653A0A000000205230203D202025AC
:101960003038580A00000000205231203D20202548
:101970003038580A00000000205232203D20202537
:101980003038580A00000000205233203D20202526
:101990003038580A0000000020523132203D202506
:1019A0003038580A00000000204C52203D202025ED
:1019B0003038580A00000000205043203D202025E8
:1019C0003038580A0000000020505352203D202596
:1019D0003038580A000000004653522F4641523A10
:1019E0000A0000002043465352203D202025303875
:1019F000580A00002048465352203D202025303808
:101A0000580A00002044465352203D2020253038FB
:101A1000580A00002041465352203D2020253038EE
:101A2000580A0000204D4D464152203D20253038B7
:101A3000580A00002042464152203D2020253038DF
:101A4000580A00004D6973630A000000204C522FB1
:101A50004558435F52455455524E3D202530385825
:101A60000A0000005B486172644661756C745D0A2F
:101A7000000000005B4275734661756C745D0A007E
:101A80005B55736167654661756C745D0A000000A3
:101A9000000000000000000001020304060708091E
:101AA0000002000100000001000002232D302B2065
:101AB00000686C4C0065666745464700303132333C
:101AC00034353637383941424344454600303132A7
:0E1AD000333435363738396162636465660039
:101AE000785634129C000020000000000024F4000E
:101AF000003802400000024000040240000802409A
:101B0000000C024000100240001C024000000000D7
:101B100000000000000000000000000000000000C5
:101B200000000000000000000000000000000000B5
:101B300000000000000000000000000000000000A5
:101B40000000000000000000000000000000000095
:101B50000000000000000000000000000000000085
:101B60000000000000000000000000002C00002029
:041B700032547698DD
:040000050800019559
:00000001FF
