:100000000C942A000C9434000C9434000C943400AA
:100010000C9434000C9434000C9434000C94340090
:100020000C9434000C9434000C9434000C94340080
:100030000C9434000C9434000C9434000C94340070
:100040000C9434000C9434000C9434000C94340060
:100050000C94340011241FBECFE5D8E0DEBFCDBF25
:100060000E9436000C944F000C94000081E18ABB82
:1000700081E08BBB2FE38DE093E0215080409040E6
:10008000E1F700C0000080E18BBB2FE38DE093E03F
:10009000215080409040E1F700C00000E9CFF89483
:0200A000FFCF90
:00000001FF
