:100000000C942A000C943C000C943C000C943C0092
:100010000C943C000C943C000C943C000C943C0070
:100020000C943C000C943C000C943C000C943C0060
:100030000C9492000C9437010C9489010C9460018B
:100040000C943C000C943C000C943C000C943C0040
:100050000C943C0011241FBECFE5D8E0DEBFCDBF1D
:1000600020E0A0E6B0E001C01D92AB37B207E1F797
:100070000E9474000C94B2010C940000882319F0C3
:10008000813029F0089588B38E7F88BB089588B3A6
:10009000816088BB0895E0E6F0E081E080838183A1
:1000A00083E08283138282E08783148287B3816036
:1000B00087BB88B3816088BB0E94BB000895CF9343
:1000C000C82F80E00E943E0083E00E942D018C2F0B
:1000D0000E942D0180E00E942D01C82F81E00E9426
:1000E0003E008C2FCF9108950E944B0083EC99E045
:1000F0000197F1F700C0000080E00E945F0089EFE7
:1001000090E00197F1F700C0000081E00E945F00DD
:1001100089EF90E00197F1F700C0000082E00E94B3
:100120005F00EACF1F920F920FB60F9211242F9308
:100130003F934F935F936F937F938F939F93AF936F
:10014000BF93EF93FF93E0916500F09166003097C5
:1001500009F00995FF91EF91BF91AF919F918F9118
:100160007F916F915F914F913F912F910F900FBEB3
:100170000F901F9018951DB81EB8809160008130B7
:1001800009F06AC080916100882361F0813069F4D0
:100190008DB180618DB987B3806B87BB88B3806375
:1001A00088BB03C087B3806487BB809163008130C4
:1001B00019F48DB180628DB980916400813019F499
:1001C0008DB180688DB980916200823041F08330BA
:1001D00069F0813089F48DB184608DB90DC08DB125
:1001E00088608DB988B3806888BB06C08DB18C608B
:1001F0008DB988B3806888BB809167008330B9F07F
:1002000028F4882349F0823059F023C08530D1F09A
:1002100090F08630D9F01DC08EB181608EB919C0C2
:100220008EB181608EB98DB181608DB912C08DB1F2
:1002300081608DB90EC08EB181608EB98DB1826042
:100240008DB907C08DB182608DB903C08DB1836057
:100250008DB98DB180648DB908958FB9769B03C037
:1002600081E080936800779BFECF8FB108951F9245
:100270000F920FB60F9211242F933F934F935F93DA
:100280006F937F938F939F93AF93BF93EF93FF935E
:10029000E0917500F0917600309709F00995FF9193
:1002A000EF91BF91AF919F918F917F916F915F91EE
:1002B0004F913F912F910F900FBE0F901F90189567
:1002C0001F920F920FB60F9211242F933F934F93CB
:1002D0005F936F937F938F939F93AF93BF93EF93AE
:1002E000FF93E0917700F0917800309709F009953D
:1002F000FF91EF91BF91AF919F918F917F916F91FE
:100300005F914F913F912F910F900FBE0F901F90D3
:1003100018951F920F920FB60F9211242F933F93AF
:100320004F935F936F937F938F939F93AF93BF93FD
:10033000EF93FF93E0917900F0917A00309709F004
:100340000995FF91EF91BF91AF919F918F917F910F
:100350006F915F914F913F912F910F900FBE0F9032
:080360001F901895F894FFCFDF
:00000001FF
